{
	"vjezba1.sol": {
		"StudentRecord": {
			"abi": [
				{
					"inputs": [
						{
							"internalType": "string",
							"name": "_name",
							"type": "string"
						},
						{
							"internalType": "uint256",
							"name": "_grade",
							"type": "uint256"
						}
					],
					"name": "addStudent",
					"outputs": [],
					"stateMutability": "nonpayable",
					"type": "function"
				},
				{
					"inputs": [],
					"name": "count",
					"outputs": [
						{
							"internalType": "uint256",
							"name": "",
							"type": "uint256"
						}
					],
					"stateMutability": "view",
					"type": "function"
				},
				{
					"inputs": [
						{
							"internalType": "uint256",
							"name": "_id",
							"type": "uint256"
						}
					],
					"name": "getStudent",
					"outputs": [
						{
							"internalType": "string",
							"name": "",
							"type": "string"
						}
					],
					"stateMutability": "view",
					"type": "function"
				},
				{
					"inputs": [
						{
							"internalType": "uint256",
							"name": "",
							"type": "uint256"
						}
					],
					"name": "students",
					"outputs": [
						{
							"internalType": "string",
							"name": "name",
							"type": "string"
						},
						{
							"internalType": "uint256",
							"name": "grade",
							"type": "uint256"
						}
					],
					"stateMutability": "view",
					"type": "function"
				},
				{
					"inputs": [
						{
							"internalType": "uint256",
							"name": "_id",
							"type": "uint256"
						},
						{
							"internalType": "uint256",
							"name": "_newGrade",
							"type": "uint256"
						}
					],
					"name": "updateGrade",
					"outputs": [],
					"stateMutability": "nonpayable",
					"type": "function"
				}
			],
			"devdoc": {
				"kind": "dev",
				"methods": {},
				"version": 1
			},
			"evm": {
				"assembly": "    /* \"vjezba1.sol\":60:680  contract StudentRecord {... */\n  mstore(0x40, 0x80)\n  callvalue\n  dup1\n  iszero\n  tag_1\n  jumpi\n  revert(0x00, 0x00)\ntag_1:\n  pop\n  dataSize(sub_0)\n  dup1\n  dataOffset(sub_0)\n  0x00\n  codecopy\n  0x00\n  return\nstop\n\nsub_0: assembly {\n        /* \"vjezba1.sol\":60:680  contract StudentRecord {... */\n      mstore(0x40, 0x80)\n      callvalue\n      dup1\n      iszero\n      tag_1\n      jumpi\n      revert(0x00, 0x00)\n    tag_1:\n      pop\n      jumpi(tag_2, lt(calldatasize, 0x04))\n      shr(0xe0, calldataload(0x00))\n      dup1\n      0x06661abd\n      eq\n      tag_3\n      jumpi\n      dup1\n      0x06ead22e\n      eq\n      tag_4\n      jumpi\n      dup1\n      0x0e5eeef7\n      eq\n      tag_5\n      jumpi\n      dup1\n      0x50bf95ce\n      eq\n      tag_6\n      jumpi\n      dup1\n      0x642f9163\n      eq\n      tag_7\n      jumpi\n    tag_2:\n      revert(0x00, 0x00)\n        /* \"vjezba1.sol\":210:227  uint public count */\n    tag_3:\n      tag_8\n      tag_9\n      jump\t// in\n    tag_8:\n      mload(0x40)\n      tag_10\n      swap2\n      swap1\n      tag_11\n      jump\t// in\n    tag_10:\n      mload(0x40)\n      dup1\n      swap2\n      sub\n      swap1\n      return\n        /* \"vjezba1.sol\":163:203  mapping(uint => Student) public students */\n    tag_4:\n      tag_12\n      0x04\n      dup1\n      calldatasize\n      sub\n      dup2\n      add\n      swap1\n      tag_13\n      swap2\n      swap1\n      tag_14\n      jump\t// in\n    tag_13:\n      tag_15\n      jump\t// in\n    tag_12:\n      mload(0x40)\n      tag_16\n      swap3\n      swap2\n      swap1\n      tag_17\n      jump\t// in\n    tag_16:\n      mload(0x40)\n      dup1\n      swap2\n      sub\n      swap1\n      return\n        /* \"vjezba1.sol\":236:373  function addStudent(string memory _name, uint _grade) public{... */\n    tag_5:\n      tag_18\n      0x04\n      dup1\n      calldatasize\n      sub\n      dup2\n      add\n      swap1\n      tag_19\n      swap2\n      swap1\n      tag_20\n      jump\t// in\n    tag_19:\n      tag_21\n      jump\t// in\n    tag_18:\n      stop\n        /* \"vjezba1.sol\":528:677  function updateGrade(uint _id, uint _newGrade) public {... */\n    tag_6:\n      tag_22\n      0x04\n      dup1\n      calldatasize\n      sub\n      dup2\n      add\n      swap1\n      tag_23\n      swap2\n      swap1\n      tag_24\n      jump\t// in\n    tag_23:\n      tag_25\n      jump\t// in\n    tag_22:\n      stop\n        /* \"vjezba1.sol\":381:520  function getStudent(uint _id) public view returns(string memory){... */\n    tag_7:\n      tag_26\n      0x04\n      dup1\n      calldatasize\n      sub\n      dup2\n      add\n      swap1\n      tag_27\n      swap2\n      swap1\n      tag_14\n      jump\t// in\n    tag_27:\n      tag_28\n      jump\t// in\n    tag_26:\n      mload(0x40)\n      tag_29\n      swap2\n      swap1\n      tag_30\n      jump\t// in\n    tag_29:\n      mload(0x40)\n      dup1\n      swap2\n      sub\n      swap1\n      return\n        /* \"vjezba1.sol\":210:227  uint public count */\n    tag_9:\n      sload(0x01)\n      dup2\n      jump\t// out\n        /* \"vjezba1.sol\":163:203  mapping(uint => Student) public students */\n    tag_15:\n      mstore(0x20, 0x00)\n      dup1\n      0x00\n      mstore\n      keccak256(0x00, 0x40)\n      0x00\n      swap2\n      pop\n      swap1\n      pop\n      dup1\n      0x00\n      add\n      dup1\n      sload\n      tag_31\n      swap1\n      tag_32\n      jump\t// in\n    tag_31:\n      dup1\n      0x1f\n      add\n      0x20\n      dup1\n      swap2\n      div\n      mul\n      0x20\n      add\n      mload(0x40)\n      swap1\n      dup2\n      add\n      0x40\n      mstore\n      dup1\n      swap3\n      swap2\n      swap1\n      dup2\n      dup2\n      mstore\n      0x20\n      add\n      dup3\n      dup1\n      sload\n      tag_33\n      swap1\n      tag_32\n      jump\t// in\n    tag_33:\n      dup1\n      iszero\n      tag_34\n      jumpi\n      dup1\n      0x1f\n      lt\n      tag_35\n      jumpi\n      0x0100\n      dup1\n      dup4\n      sload\n      div\n      mul\n      dup4\n      mstore\n      swap2\n      0x20\n      add\n      swap2\n      jump(tag_34)\n    tag_35:\n      dup3\n      add\n      swap2\n      swap1\n      0x00\n      mstore\n      keccak256(0x00, 0x20)\n      swap1\n    tag_36:\n      dup2\n      sload\n      dup2\n      mstore\n      swap1\n      0x01\n      add\n      swap1\n      0x20\n      add\n      dup1\n      dup4\n      gt\n      tag_36\n      jumpi\n      dup3\n      swap1\n      sub\n      0x1f\n      and\n      dup3\n      add\n      swap2\n    tag_34:\n      pop\n      pop\n      pop\n      pop\n      pop\n      swap1\n      dup1\n      0x01\n      add\n      sload\n      swap1\n      pop\n      dup3\n      jump\t// out\n        /* \"vjezba1.sol\":236:373  function addStudent(string memory _name, uint _grade) public{... */\n    tag_21:\n        /* \"vjezba1.sol\":325:347  Student(_name, _grade) */\n      mload(0x40)\n      dup1\n      0x40\n      add\n      0x40\n      mstore\n      dup1\n        /* \"vjezba1.sol\":333:338  _name */\n      dup4\n        /* \"vjezba1.sol\":325:347  Student(_name, _grade) */\n      dup2\n      mstore\n      0x20\n      add\n        /* \"vjezba1.sol\":340:346  _grade */\n      dup3\n        /* \"vjezba1.sol\":325:347  Student(_name, _grade) */\n      dup2\n      mstore\n      pop\n        /* \"vjezba1.sol\":307:315  students */\n      0x00\n        /* \"vjezba1.sol\":307:322  students[count] */\n      0x00\n        /* \"vjezba1.sol\":316:321  count */\n      sload(0x01)\n        /* \"vjezba1.sol\":307:322  students[count] */\n      dup2\n      mstore\n      0x20\n      add\n      swap1\n      dup2\n      mstore\n      0x20\n      add\n      0x00\n      keccak256\n        /* \"vjezba1.sol\":307:347  students[count] = Student(_name, _grade) */\n      0x00\n      dup3\n      add\n      mload\n      dup2\n      0x00\n      add\n      swap1\n      dup2\n      tag_38\n      swap2\n      swap1\n      tag_39\n      jump\t// in\n    tag_38:\n      pop\n      0x20\n      dup3\n      add\n      mload\n      dup2\n      0x01\n      add\n      sstore\n      swap1\n      pop\n      pop\n        /* \"vjezba1.sol\":358:363  count */\n      0x01\n      0x00\n        /* \"vjezba1.sol\":358:365  count++ */\n      dup2\n      sload\n      dup1\n      swap3\n      swap2\n      swap1\n      tag_40\n      swap1\n      tag_41\n      jump\t// in\n    tag_40:\n      swap2\n      swap1\n      pop\n      sstore\n      pop\n        /* \"vjezba1.sol\":236:373  function addStudent(string memory _name, uint _grade) public{... */\n      pop\n      pop\n      jump\t// out\n        /* \"vjezba1.sol\":528:677  function updateGrade(uint _id, uint _newGrade) public {... */\n    tag_25:\n        /* \"vjezba1.sol\":603:608  count */\n      sload(0x01)\n        /* \"vjezba1.sol\":597:600  _id */\n      dup3\n        /* \"vjezba1.sol\":597:608  _id < count */\n      lt\n        /* \"vjezba1.sol\":589:631  require(_id < count, \"Student ne postoji\") */\n      tag_43\n      jumpi\n      mload(0x40)\n      0x08c379a000000000000000000000000000000000000000000000000000000000\n      dup2\n      mstore\n      0x04\n      add\n      tag_44\n      swap1\n      tag_45\n      jump\t// in\n    tag_44:\n      mload(0x40)\n      dup1\n      swap2\n      sub\n      swap1\n      revert\n    tag_43:\n        /* \"vjezba1.sol\":660:669  _newGrade */\n      dup1\n        /* \"vjezba1.sol\":638:646  students */\n      0x00\n        /* \"vjezba1.sol\":638:651  students[_id] */\n      0x00\n        /* \"vjezba1.sol\":647:650  _id */\n      dup5\n        /* \"vjezba1.sol\":638:651  students[_id] */\n      dup2\n      mstore\n      0x20\n      add\n      swap1\n      dup2\n      mstore\n      0x20\n      add\n      0x00\n      keccak256\n        /* \"vjezba1.sol\":638:657  students[_id].grade */\n      0x01\n      add\n        /* \"vjezba1.sol\":638:669  students[_id].grade = _newGrade */\n      dup2\n      swap1\n      sstore\n      pop\n        /* \"vjezba1.sol\":528:677  function updateGrade(uint _id, uint _newGrade) public {... */\n      pop\n      pop\n      jump\t// out\n        /* \"vjezba1.sol\":381:520  function getStudent(uint _id) public view returns(string memory){... */\n    tag_28:\n        /* \"vjezba1.sol\":431:444  string memory */\n      0x60\n        /* \"vjezba1.sol\":456:472  Student memory s */\n      0x00\n        /* \"vjezba1.sol\":475:483  students */\n      0x00\n        /* \"vjezba1.sol\":475:488  students[_id] */\n      0x00\n        /* \"vjezba1.sol\":484:487  _id */\n      dup5\n        /* \"vjezba1.sol\":475:488  students[_id] */\n      dup2\n      mstore\n      0x20\n      add\n      swap1\n      dup2\n      mstore\n      0x20\n      add\n      0x00\n      keccak256\n        /* \"vjezba1.sol\":456:488  Student memory s = students[_id] */\n      mload(0x40)\n      dup1\n      0x40\n      add\n      0x40\n      mstore\n      swap1\n      dup2\n      0x00\n      dup3\n      add\n      dup1\n      sload\n      tag_47\n      swap1\n      tag_32\n      jump\t// in\n    tag_47:\n      dup1\n      0x1f\n      add\n      0x20\n      dup1\n      swap2\n      div\n      mul\n      0x20\n      add\n      mload(0x40)\n      swap1\n      dup2\n      add\n      0x40\n      mstore\n      dup1\n      swap3\n      swap2\n      swap1\n      dup2\n      dup2\n      mstore\n      0x20\n      add\n      dup3\n      dup1\n      sload\n      tag_48\n      swap1\n      tag_32\n      jump\t// in\n    tag_48:\n      dup1\n      iszero\n      tag_49\n      jumpi\n      dup1\n      0x1f\n      lt\n      tag_50\n      jumpi\n      0x0100\n      dup1\n      dup4\n      sload\n      div\n      mul\n      dup4\n      mstore\n      swap2\n      0x20\n      add\n      swap2\n      jump(tag_49)\n    tag_50:\n      dup3\n      add\n      swap2\n      swap1\n      0x00\n      mstore\n      keccak256(0x00, 0x20)\n      swap1\n    tag_51:\n      dup2\n      sload\n      dup2\n      mstore\n      swap1\n      0x01\n      add\n      swap1\n      0x20\n      add\n      dup1\n      dup4\n      gt\n      tag_51\n      jumpi\n      dup3\n      swap1\n      sub\n      0x1f\n      and\n      dup3\n      add\n      swap2\n    tag_49:\n      pop\n      pop\n      pop\n      pop\n      pop\n      dup2\n      mstore\n      0x20\n      add\n      0x01\n      dup3\n      add\n      sload\n      dup2\n      mstore\n      pop\n      pop\n      swap1\n      pop\n        /* \"vjezba1.sol\":506:507  s */\n      dup1\n        /* \"vjezba1.sol\":506:512  s.name */\n      0x00\n      add\n      mload\n        /* \"vjezba1.sol\":499:512  return s.name */\n      swap2\n      pop\n      pop\n        /* \"vjezba1.sol\":381:520  function getStudent(uint _id) public view returns(string memory){... */\n      swap2\n      swap1\n      pop\n      jump\t// out\n        /* \"#utility.yul\":7:84   */\n    tag_52:\n        /* \"#utility.yul\":44:51   */\n      0x00\n        /* \"#utility.yul\":73:78   */\n      dup2\n        /* \"#utility.yul\":62:78   */\n      swap1\n      pop\n        /* \"#utility.yul\":7:84   */\n      swap2\n      swap1\n      pop\n      jump\t// out\n        /* \"#utility.yul\":90:208   */\n    tag_53:\n        /* \"#utility.yul\":177:201   */\n      tag_95\n        /* \"#utility.yul\":195:200   */\n      dup2\n        /* \"#utility.yul\":177:201   */\n      tag_52\n      jump\t// in\n    tag_95:\n        /* \"#utility.yul\":172:175   */\n      dup3\n        /* \"#utility.yul\":165:202   */\n      mstore\n        /* \"#utility.yul\":90:208   */\n      pop\n      pop\n      jump\t// out\n        /* \"#utility.yul\":214:436   */\n    tag_11:\n        /* \"#utility.yul\":307:311   */\n      0x00\n        /* \"#utility.yul\":345:347   */\n      0x20\n        /* \"#utility.yul\":334:343   */\n      dup3\n        /* \"#utility.yul\":330:348   */\n      add\n        /* \"#utility.yul\":322:348   */\n      swap1\n      pop\n        /* \"#utility.yul\":358:429   */\n      tag_97\n        /* \"#utility.yul\":426:427   */\n      0x00\n        /* \"#utility.yul\":415:424   */\n      dup4\n        /* \"#utility.yul\":411:428   */\n      add\n        /* \"#utility.yul\":402:408   */\n      dup5\n        /* \"#utility.yul\":358:429   */\n      tag_53\n      jump\t// in\n    tag_97:\n        /* \"#utility.yul\":214:436   */\n      swap3\n      swap2\n      pop\n      pop\n      jump\t// out\n        /* \"#utility.yul\":442:517   */\n    tag_54:\n        /* \"#utility.yul\":475:481   */\n      0x00\n        /* \"#utility.yul\":508:510   */\n      0x40\n        /* \"#utility.yul\":502:511   */\n      mload\n        /* \"#utility.yul\":492:511   */\n      swap1\n      pop\n        /* \"#utility.yul\":442:517   */\n      swap1\n      jump\t// out\n        /* \"#utility.yul\":523:640   */\n    tag_55:\n        /* \"#utility.yul\":632:633   */\n      0x00\n        /* \"#utility.yul\":629:630   */\n      0x00\n        /* \"#utility.yul\":622:634   */\n      revert\n        /* \"#utility.yul\":646:763   */\n    tag_56:\n        /* \"#utility.yul\":755:756   */\n      0x00\n        /* \"#utility.yul\":752:753   */\n      0x00\n        /* \"#utility.yul\":745:757   */\n      revert\n        /* \"#utility.yul\":769:891   */\n    tag_57:\n        /* \"#utility.yul\":842:866   */\n      tag_102\n        /* \"#utility.yul\":860:865   */\n      dup2\n        /* \"#utility.yul\":842:866   */\n      tag_52\n      jump\t// in\n    tag_102:\n        /* \"#utility.yul\":835:840   */\n      dup2\n        /* \"#utility.yul\":832:867   */\n      eq\n        /* \"#utility.yul\":822:885   */\n      tag_103\n      jumpi\n        /* \"#utility.yul\":881:882   */\n      0x00\n        /* \"#utility.yul\":878:879   */\n      0x00\n        /* \"#utility.yul\":871:883   */\n      revert\n        /* \"#utility.yul\":822:885   */\n    tag_103:\n        /* \"#utility.yul\":769:891   */\n      pop\n      jump\t// out\n        /* \"#utility.yul\":897:1036   */\n    tag_58:\n        /* \"#utility.yul\":943:948   */\n      0x00\n        /* \"#utility.yul\":981:987   */\n      dup2\n        /* \"#utility.yul\":968:988   */\n      calldataload\n        /* \"#utility.yul\":959:988   */\n      swap1\n      pop\n        /* \"#utility.yul\":997:1030   */\n      tag_105\n        /* \"#utility.yul\":1024:1029   */\n      dup2\n        /* \"#utility.yul\":997:1030   */\n      tag_57\n      jump\t// in\n    tag_105:\n        /* \"#utility.yul\":897:1036   */\n      swap3\n      swap2\n      pop\n      pop\n      jump\t// out\n        /* \"#utility.yul\":1042:1371   */\n    tag_14:\n        /* \"#utility.yul\":1101:1107   */\n      0x00\n        /* \"#utility.yul\":1150:1152   */\n      0x20\n        /* \"#utility.yul\":1138:1147   */\n      dup3\n        /* \"#utility.yul\":1129:1136   */\n      dup5\n        /* \"#utility.yul\":1125:1148   */\n      sub\n        /* \"#utility.yul\":1121:1153   */\n      slt\n        /* \"#utility.yul\":1118:1237   */\n      iszero\n      tag_107\n      jumpi\n        /* \"#utility.yul\":1156:1235   */\n      tag_108\n      tag_55\n      jump\t// in\n    tag_108:\n        /* \"#utility.yul\":1118:1237   */\n    tag_107:\n        /* \"#utility.yul\":1276:1277   */\n      0x00\n        /* \"#utility.yul\":1301:1354   */\n      tag_109\n        /* \"#utility.yul\":1346:1353   */\n      dup5\n        /* \"#utility.yul\":1337:1343   */\n      dup3\n        /* \"#utility.yul\":1326:1335   */\n      dup6\n        /* \"#utility.yul\":1322:1344   */\n      add\n        /* \"#utility.yul\":1301:1354   */\n      tag_58\n      jump\t// in\n    tag_109:\n        /* \"#utility.yul\":1291:1354   */\n      swap2\n      pop\n        /* \"#utility.yul\":1247:1364   */\n      pop\n        /* \"#utility.yul\":1042:1371   */\n      swap3\n      swap2\n      pop\n      pop\n      jump\t// out\n        /* \"#utility.yul\":1377:1476   */\n    tag_59:\n        /* \"#utility.yul\":1429:1435   */\n      0x00\n        /* \"#utility.yul\":1463:1468   */\n      dup2\n        /* \"#utility.yul\":1457:1469   */\n      mload\n        /* \"#utility.yul\":1447:1469   */\n      swap1\n      pop\n        /* \"#utility.yul\":1377:1476   */\n      swap2\n      swap1\n      pop\n      jump\t// out\n        /* \"#utility.yul\":1482:1651   */\n    tag_60:\n        /* \"#utility.yul\":1566:1577   */\n      0x00\n        /* \"#utility.yul\":1600:1606   */\n      dup3\n        /* \"#utility.yul\":1595:1598   */\n      dup3\n        /* \"#utility.yul\":1588:1607   */\n      mstore\n        /* \"#utility.yul\":1640:1644   */\n      0x20\n        /* \"#utility.yul\":1635:1638   */\n      dup3\n        /* \"#utility.yul\":1631:1645   */\n      add\n        /* \"#utility.yul\":1616:1645   */\n      swap1\n      pop\n        /* \"#utility.yul\":1482:1651   */\n      swap3\n      swap2\n      pop\n      pop\n      jump\t// out\n        /* \"#utility.yul\":1657:1796   */\n    tag_61:\n        /* \"#utility.yul\":1746:1752   */\n      dup3\n        /* \"#utility.yul\":1741:1744   */\n      dup2\n        /* \"#utility.yul\":1736:1739   */\n      dup4\n        /* \"#utility.yul\":1730:1753   */\n      mcopy\n        /* \"#utility.yul\":1787:1788   */\n      0x00\n        /* \"#utility.yul\":1778:1784   */\n      dup4\n        /* \"#utility.yul\":1773:1776   */\n      dup4\n        /* \"#utility.yul\":1769:1785   */\n      add\n        /* \"#utility.yul\":1762:1789   */\n      mstore\n        /* \"#utility.yul\":1657:1796   */\n      pop\n      pop\n      pop\n      jump\t// out\n        /* \"#utility.yul\":1802:1904   */\n    tag_62:\n        /* \"#utility.yul\":1843:1849   */\n      0x00\n        /* \"#utility.yul\":1894:1896   */\n      0x1f\n        /* \"#utility.yul\":1890:1897   */\n      not\n        /* \"#utility.yul\":1885:1887   */\n      0x1f\n        /* \"#utility.yul\":1878:1883   */\n      dup4\n        /* \"#utility.yul\":1874:1888   */\n      add\n        /* \"#utility.yul\":1870:1898   */\n      and\n        /* \"#utility.yul\":1860:1898   */\n      swap1\n      pop\n        /* \"#utility.yul\":1802:1904   */\n      swap2\n      swap1\n      pop\n      jump\t// out\n        /* \"#utility.yul\":1910:2287   */\n    tag_63:\n        /* \"#utility.yul\":1998:2001   */\n      0x00\n        /* \"#utility.yul\":2026:2065   */\n      tag_115\n        /* \"#utility.yul\":2059:2064   */\n      dup3\n        /* \"#utility.yul\":2026:2065   */\n      tag_59\n      jump\t// in\n    tag_115:\n        /* \"#utility.yul\":2081:2152   */\n      tag_116\n        /* \"#utility.yul\":2145:2151   */\n      dup2\n        /* \"#utility.yul\":2140:2143   */\n      dup6\n        /* \"#utility.yul\":2081:2152   */\n      tag_60\n      jump\t// in\n    tag_116:\n        /* \"#utility.yul\":2074:2152   */\n      swap4\n      pop\n        /* \"#utility.yul\":2161:2226   */\n      tag_117\n        /* \"#utility.yul\":2219:2225   */\n      dup2\n        /* \"#utility.yul\":2214:2217   */\n      dup6\n        /* \"#utility.yul\":2207:2211   */\n      0x20\n        /* \"#utility.yul\":2200:2205   */\n      dup7\n        /* \"#utility.yul\":2196:2212   */\n      add\n        /* \"#utility.yul\":2161:2226   */\n      tag_61\n      jump\t// in\n    tag_117:\n        /* \"#utility.yul\":2251:2280   */\n      tag_118\n        /* \"#utility.yul\":2273:2279   */\n      dup2\n        /* \"#utility.yul\":2251:2280   */\n      tag_62\n      jump\t// in\n    tag_118:\n        /* \"#utility.yul\":2246:2249   */\n      dup5\n        /* \"#utility.yul\":2242:2281   */\n      add\n        /* \"#utility.yul\":2235:2281   */\n      swap2\n      pop\n        /* \"#utility.yul\":2002:2287   */\n      pop\n        /* \"#utility.yul\":1910:2287   */\n      swap3\n      swap2\n      pop\n      pop\n      jump\t// out\n        /* \"#utility.yul\":2293:2716   */\n    tag_17:\n        /* \"#utility.yul\":2434:2438   */\n      0x00\n        /* \"#utility.yul\":2472:2474   */\n      0x40\n        /* \"#utility.yul\":2461:2470   */\n      dup3\n        /* \"#utility.yul\":2457:2475   */\n      add\n        /* \"#utility.yul\":2449:2475   */\n      swap1\n      pop\n        /* \"#utility.yul\":2521:2530   */\n      dup2\n        /* \"#utility.yul\":2515:2519   */\n      dup2\n        /* \"#utility.yul\":2511:2531   */\n      sub\n        /* \"#utility.yul\":2507:2508   */\n      0x00\n        /* \"#utility.yul\":2496:2505   */\n      dup4\n        /* \"#utility.yul\":2492:2509   */\n      add\n        /* \"#utility.yul\":2485:2532   */\n      mstore\n        /* \"#utility.yul\":2549:2627   */\n      tag_120\n        /* \"#utility.yul\":2622:2626   */\n      dup2\n        /* \"#utility.yul\":2613:2619   */\n      dup6\n        /* \"#utility.yul\":2549:2627   */\n      tag_63\n      jump\t// in\n    tag_120:\n        /* \"#utility.yul\":2541:2627   */\n      swap1\n      pop\n        /* \"#utility.yul\":2637:2709   */\n      tag_121\n        /* \"#utility.yul\":2705:2707   */\n      0x20\n        /* \"#utility.yul\":2694:2703   */\n      dup4\n        /* \"#utility.yul\":2690:2708   */\n      add\n        /* \"#utility.yul\":2681:2687   */\n      dup5\n        /* \"#utility.yul\":2637:2709   */\n      tag_53\n      jump\t// in\n    tag_121:\n        /* \"#utility.yul\":2293:2716   */\n      swap4\n      swap3\n      pop\n      pop\n      pop\n      jump\t// out\n        /* \"#utility.yul\":2722:2839   */\n    tag_64:\n        /* \"#utility.yul\":2831:2832   */\n      0x00\n        /* \"#utility.yul\":2828:2829   */\n      0x00\n        /* \"#utility.yul\":2821:2833   */\n      revert\n        /* \"#utility.yul\":2845:2962   */\n    tag_65:\n        /* \"#utility.yul\":2954:2955   */\n      0x00\n        /* \"#utility.yul\":2951:2952   */\n      0x00\n        /* \"#utility.yul\":2944:2956   */\n      revert\n        /* \"#utility.yul\":2968:3148   */\n    tag_66:\n        /* \"#utility.yul\":3016:3093   */\n      0x4e487b7100000000000000000000000000000000000000000000000000000000\n        /* \"#utility.yul\":3013:3014   */\n      0x00\n        /* \"#utility.yul\":3006:3094   */\n      mstore\n        /* \"#utility.yul\":3113:3117   */\n      0x41\n        /* \"#utility.yul\":3110:3111   */\n      0x04\n        /* \"#utility.yul\":3103:3118   */\n      mstore\n        /* \"#utility.yul\":3137:3141   */\n      0x24\n        /* \"#utility.yul\":3134:3135   */\n      0x00\n        /* \"#utility.yul\":3127:3142   */\n      revert\n        /* \"#utility.yul\":3154:3435   */\n    tag_67:\n        /* \"#utility.yul\":3237:3264   */\n      tag_126\n        /* \"#utility.yul\":3259:3263   */\n      dup3\n        /* \"#utility.yul\":3237:3264   */\n      tag_62\n      jump\t// in\n    tag_126:\n        /* \"#utility.yul\":3229:3235   */\n      dup2\n        /* \"#utility.yul\":3225:3265   */\n      add\n        /* \"#utility.yul\":3367:3373   */\n      dup2\n        /* \"#utility.yul\":3355:3365   */\n      dup2\n        /* \"#utility.yul\":3352:3374   */\n      lt\n        /* \"#utility.yul\":3331:3349   */\n      0xffffffffffffffff\n        /* \"#utility.yul\":3319:3329   */\n      dup3\n        /* \"#utility.yul\":3316:3350   */\n      gt\n        /* \"#utility.yul\":3313:3375   */\n      or\n        /* \"#utility.yul\":3310:3398   */\n      iszero\n      tag_127\n      jumpi\n        /* \"#utility.yul\":3378:3396   */\n      tag_128\n      tag_66\n      jump\t// in\n    tag_128:\n        /* \"#utility.yul\":3310:3398   */\n    tag_127:\n        /* \"#utility.yul\":3418:3428   */\n      dup1\n        /* \"#utility.yul\":3414:3416   */\n      0x40\n        /* \"#utility.yul\":3407:3429   */\n      mstore\n        /* \"#utility.yul\":3197:3435   */\n      pop\n        /* \"#utility.yul\":3154:3435   */\n      pop\n      pop\n      jump\t// out\n        /* \"#utility.yul\":3441:3570   */\n    tag_68:\n        /* \"#utility.yul\":3475:3481   */\n      0x00\n        /* \"#utility.yul\":3502:3522   */\n      tag_130\n      tag_54\n      jump\t// in\n    tag_130:\n        /* \"#utility.yul\":3492:3522   */\n      swap1\n      pop\n        /* \"#utility.yul\":3531:3564   */\n      tag_131\n        /* \"#utility.yul\":3559:3563   */\n      dup3\n        /* \"#utility.yul\":3551:3557   */\n      dup3\n        /* \"#utility.yul\":3531:3564   */\n      tag_67\n      jump\t// in\n    tag_131:\n        /* \"#utility.yul\":3441:3570   */\n      swap2\n      swap1\n      pop\n      jump\t// out\n        /* \"#utility.yul\":3576:3884   */\n    tag_69:\n        /* \"#utility.yul\":3638:3642   */\n      0x00\n        /* \"#utility.yul\":3728:3746   */\n      0xffffffffffffffff\n        /* \"#utility.yul\":3720:3726   */\n      dup3\n        /* \"#utility.yul\":3717:3747   */\n      gt\n        /* \"#utility.yul\":3714:3770   */\n      iszero\n      tag_133\n      jumpi\n        /* \"#utility.yul\":3750:3768   */\n      tag_134\n      tag_66\n      jump\t// in\n    tag_134:\n        /* \"#utility.yul\":3714:3770   */\n    tag_133:\n        /* \"#utility.yul\":3788:3817   */\n      tag_135\n        /* \"#utility.yul\":3810:3816   */\n      dup3\n        /* \"#utility.yul\":3788:3817   */\n      tag_62\n      jump\t// in\n    tag_135:\n        /* \"#utility.yul\":3780:3817   */\n      swap1\n      pop\n        /* \"#utility.yul\":3872:3876   */\n      0x20\n        /* \"#utility.yul\":3866:3870   */\n      dup2\n        /* \"#utility.yul\":3862:3877   */\n      add\n        /* \"#utility.yul\":3854:3877   */\n      swap1\n      pop\n        /* \"#utility.yul\":3576:3884   */\n      swap2\n      swap1\n      pop\n      jump\t// out\n        /* \"#utility.yul\":3890:4038   */\n    tag_70:\n        /* \"#utility.yul\":3988:3994   */\n      dup3\n        /* \"#utility.yul\":3983:3986   */\n      dup2\n        /* \"#utility.yul\":3978:3981   */\n      dup4\n        /* \"#utility.yul\":3965:3995   */\n      calldatacopy\n        /* \"#utility.yul\":4029:4030   */\n      0x00\n        /* \"#utility.yul\":4020:4026   */\n      dup4\n        /* \"#utility.yul\":4015:4018   */\n      dup4\n        /* \"#utility.yul\":4011:4027   */\n      add\n        /* \"#utility.yul\":4004:4031   */\n      mstore\n        /* \"#utility.yul\":3890:4038   */\n      pop\n      pop\n      pop\n      jump\t// out\n        /* \"#utility.yul\":4044:4469   */\n    tag_71:\n        /* \"#utility.yul\":4122:4127   */\n      0x00\n        /* \"#utility.yul\":4147:4213   */\n      tag_138\n        /* \"#utility.yul\":4163:4212   */\n      tag_139\n        /* \"#utility.yul\":4205:4211   */\n      dup5\n        /* \"#utility.yul\":4163:4212   */\n      tag_69\n      jump\t// in\n    tag_139:\n        /* \"#utility.yul\":4147:4213   */\n      tag_68\n      jump\t// in\n    tag_138:\n        /* \"#utility.yul\":4138:4213   */\n      swap1\n      pop\n        /* \"#utility.yul\":4236:4242   */\n      dup3\n        /* \"#utility.yul\":4229:4234   */\n      dup2\n        /* \"#utility.yul\":4222:4243   */\n      mstore\n        /* \"#utility.yul\":4274:4278   */\n      0x20\n        /* \"#utility.yul\":4267:4272   */\n      dup2\n        /* \"#utility.yul\":4263:4279   */\n      add\n        /* \"#utility.yul\":4312:4315   */\n      dup5\n        /* \"#utility.yul\":4303:4309   */\n      dup5\n        /* \"#utility.yul\":4298:4301   */\n      dup5\n        /* \"#utility.yul\":4294:4310   */\n      add\n        /* \"#utility.yul\":4291:4316   */\n      gt\n        /* \"#utility.yul\":4288:4400   */\n      iszero\n      tag_140\n      jumpi\n        /* \"#utility.yul\":4319:4398   */\n      tag_141\n      tag_65\n      jump\t// in\n    tag_141:\n        /* \"#utility.yul\":4288:4400   */\n    tag_140:\n        /* \"#utility.yul\":4409:4463   */\n      tag_142\n        /* \"#utility.yul\":4456:4462   */\n      dup5\n        /* \"#utility.yul\":4451:4454   */\n      dup3\n        /* \"#utility.yul\":4446:4449   */\n      dup6\n        /* \"#utility.yul\":4409:4463   */\n      tag_70\n      jump\t// in\n    tag_142:\n        /* \"#utility.yul\":4128:4469   */\n      pop\n        /* \"#utility.yul\":4044:4469   */\n      swap4\n      swap3\n      pop\n      pop\n      pop\n      jump\t// out\n        /* \"#utility.yul\":4489:4829   */\n    tag_72:\n        /* \"#utility.yul\":4545:4550   */\n      0x00\n        /* \"#utility.yul\":4594:4597   */\n      dup3\n        /* \"#utility.yul\":4587:4591   */\n      0x1f\n        /* \"#utility.yul\":4579:4585   */\n      dup4\n        /* \"#utility.yul\":4575:4592   */\n      add\n        /* \"#utility.yul\":4571:4598   */\n      slt\n        /* \"#utility.yul\":4561:4683   */\n      tag_144\n      jumpi\n        /* \"#utility.yul\":4602:4681   */\n      tag_145\n      tag_64\n      jump\t// in\n    tag_145:\n        /* \"#utility.yul\":4561:4683   */\n    tag_144:\n        /* \"#utility.yul\":4719:4725   */\n      dup2\n        /* \"#utility.yul\":4706:4726   */\n      calldataload\n        /* \"#utility.yul\":4744:4823   */\n      tag_146\n        /* \"#utility.yul\":4819:4822   */\n      dup5\n        /* \"#utility.yul\":4811:4817   */\n      dup3\n        /* \"#utility.yul\":4804:4808   */\n      0x20\n        /* \"#utility.yul\":4796:4802   */\n      dup7\n        /* \"#utility.yul\":4792:4809   */\n      add\n        /* \"#utility.yul\":4744:4823   */\n      tag_71\n      jump\t// in\n    tag_146:\n        /* \"#utility.yul\":4735:4823   */\n      swap2\n      pop\n        /* \"#utility.yul\":4551:4829   */\n      pop\n        /* \"#utility.yul\":4489:4829   */\n      swap3\n      swap2\n      pop\n      pop\n      jump\t// out\n        /* \"#utility.yul\":4835:5489   */\n    tag_20:\n        /* \"#utility.yul\":4913:4919   */\n      0x00\n        /* \"#utility.yul\":4921:4927   */\n      0x00\n        /* \"#utility.yul\":4970:4972   */\n      0x40\n        /* \"#utility.yul\":4958:4967   */\n      dup4\n        /* \"#utility.yul\":4949:4956   */\n      dup6\n        /* \"#utility.yul\":4945:4968   */\n      sub\n        /* \"#utility.yul\":4941:4973   */\n      slt\n        /* \"#utility.yul\":4938:5057   */\n      iszero\n      tag_148\n      jumpi\n        /* \"#utility.yul\":4976:5055   */\n      tag_149\n      tag_55\n      jump\t// in\n    tag_149:\n        /* \"#utility.yul\":4938:5057   */\n    tag_148:\n        /* \"#utility.yul\":5124:5125   */\n      0x00\n        /* \"#utility.yul\":5113:5122   */\n      dup4\n        /* \"#utility.yul\":5109:5126   */\n      add\n        /* \"#utility.yul\":5096:5127   */\n      calldataload\n        /* \"#utility.yul\":5154:5172   */\n      0xffffffffffffffff\n        /* \"#utility.yul\":5146:5152   */\n      dup2\n        /* \"#utility.yul\":5143:5173   */\n      gt\n        /* \"#utility.yul\":5140:5257   */\n      iszero\n      tag_150\n      jumpi\n        /* \"#utility.yul\":5176:5255   */\n      tag_151\n      tag_56\n      jump\t// in\n    tag_151:\n        /* \"#utility.yul\":5140:5257   */\n    tag_150:\n        /* \"#utility.yul\":5281:5344   */\n      tag_152\n        /* \"#utility.yul\":5336:5343   */\n      dup6\n        /* \"#utility.yul\":5327:5333   */\n      dup3\n        /* \"#utility.yul\":5316:5325   */\n      dup7\n        /* \"#utility.yul\":5312:5334   */\n      add\n        /* \"#utility.yul\":5281:5344   */\n      tag_72\n      jump\t// in\n    tag_152:\n        /* \"#utility.yul\":5271:5344   */\n      swap3\n      pop\n        /* \"#utility.yul\":5067:5354   */\n      pop\n        /* \"#utility.yul\":5393:5395   */\n      0x20\n        /* \"#utility.yul\":5419:5472   */\n      tag_153\n        /* \"#utility.yul\":5464:5471   */\n      dup6\n        /* \"#utility.yul\":5455:5461   */\n      dup3\n        /* \"#utility.yul\":5444:5453   */\n      dup7\n        /* \"#utility.yul\":5440:5462   */\n      add\n        /* \"#utility.yul\":5419:5472   */\n      tag_58\n      jump\t// in\n    tag_153:\n        /* \"#utility.yul\":5409:5472   */\n      swap2\n      pop\n        /* \"#utility.yul\":5364:5482   */\n      pop\n        /* \"#utility.yul\":4835:5489   */\n      swap3\n      pop\n      swap3\n      swap1\n      pop\n      jump\t// out\n        /* \"#utility.yul\":5495:5969   */\n    tag_24:\n        /* \"#utility.yul\":5563:5569   */\n      0x00\n        /* \"#utility.yul\":5571:5577   */\n      0x00\n        /* \"#utility.yul\":5620:5622   */\n      0x40\n        /* \"#utility.yul\":5608:5617   */\n      dup4\n        /* \"#utility.yul\":5599:5606   */\n      dup6\n        /* \"#utility.yul\":5595:5618   */\n      sub\n        /* \"#utility.yul\":5591:5623   */\n      slt\n        /* \"#utility.yul\":5588:5707   */\n      iszero\n      tag_155\n      jumpi\n        /* \"#utility.yul\":5626:5705   */\n      tag_156\n      tag_55\n      jump\t// in\n    tag_156:\n        /* \"#utility.yul\":5588:5707   */\n    tag_155:\n        /* \"#utility.yul\":5746:5747   */\n      0x00\n        /* \"#utility.yul\":5771:5824   */\n      tag_157\n        /* \"#utility.yul\":5816:5823   */\n      dup6\n        /* \"#utility.yul\":5807:5813   */\n      dup3\n        /* \"#utility.yul\":5796:5805   */\n      dup7\n        /* \"#utility.yul\":5792:5814   */\n      add\n        /* \"#utility.yul\":5771:5824   */\n      tag_58\n      jump\t// in\n    tag_157:\n        /* \"#utility.yul\":5761:5824   */\n      swap3\n      pop\n        /* \"#utility.yul\":5717:5834   */\n      pop\n        /* \"#utility.yul\":5873:5875   */\n      0x20\n        /* \"#utility.yul\":5899:5952   */\n      tag_158\n        /* \"#utility.yul\":5944:5951   */\n      dup6\n        /* \"#utility.yul\":5935:5941   */\n      dup3\n        /* \"#utility.yul\":5924:5933   */\n      dup7\n        /* \"#utility.yul\":5920:5942   */\n      add\n        /* \"#utility.yul\":5899:5952   */\n      tag_58\n      jump\t// in\n    tag_158:\n        /* \"#utility.yul\":5889:5952   */\n      swap2\n      pop\n        /* \"#utility.yul\":5844:5962   */\n      pop\n        /* \"#utility.yul\":5495:5969   */\n      swap3\n      pop\n      swap3\n      swap1\n      pop\n      jump\t// out\n        /* \"#utility.yul\":5975:6288   */\n    tag_30:\n        /* \"#utility.yul\":6088:6092   */\n      0x00\n        /* \"#utility.yul\":6126:6128   */\n      0x20\n        /* \"#utility.yul\":6115:6124   */\n      dup3\n        /* \"#utility.yul\":6111:6129   */\n      add\n        /* \"#utility.yul\":6103:6129   */\n      swap1\n      pop\n        /* \"#utility.yul\":6175:6184   */\n      dup2\n        /* \"#utility.yul\":6169:6173   */\n      dup2\n        /* \"#utility.yul\":6165:6185   */\n      sub\n        /* \"#utility.yul\":6161:6162   */\n      0x00\n        /* \"#utility.yul\":6150:6159   */\n      dup4\n        /* \"#utility.yul\":6146:6163   */\n      add\n        /* \"#utility.yul\":6139:6186   */\n      mstore\n        /* \"#utility.yul\":6203:6281   */\n      tag_160\n        /* \"#utility.yul\":6276:6280   */\n      dup2\n        /* \"#utility.yul\":6267:6273   */\n      dup5\n        /* \"#utility.yul\":6203:6281   */\n      tag_63\n      jump\t// in\n    tag_160:\n        /* \"#utility.yul\":6195:6281   */\n      swap1\n      pop\n        /* \"#utility.yul\":5975:6288   */\n      swap3\n      swap2\n      pop\n      pop\n      jump\t// out\n        /* \"#utility.yul\":6294:6474   */\n    tag_73:\n        /* \"#utility.yul\":6342:6419   */\n      0x4e487b7100000000000000000000000000000000000000000000000000000000\n        /* \"#utility.yul\":6339:6340   */\n      0x00\n        /* \"#utility.yul\":6332:6420   */\n      mstore\n        /* \"#utility.yul\":6439:6443   */\n      0x22\n        /* \"#utility.yul\":6436:6437   */\n      0x04\n        /* \"#utility.yul\":6429:6444   */\n      mstore\n        /* \"#utility.yul\":6463:6467   */\n      0x24\n        /* \"#utility.yul\":6460:6461   */\n      0x00\n        /* \"#utility.yul\":6453:6468   */\n      revert\n        /* \"#utility.yul\":6480:6800   */\n    tag_32:\n        /* \"#utility.yul\":6524:6530   */\n      0x00\n        /* \"#utility.yul\":6561:6562   */\n      0x02\n        /* \"#utility.yul\":6555:6559   */\n      dup3\n        /* \"#utility.yul\":6551:6563   */\n      div\n        /* \"#utility.yul\":6541:6563   */\n      swap1\n      pop\n        /* \"#utility.yul\":6608:6609   */\n      0x01\n        /* \"#utility.yul\":6602:6606   */\n      dup3\n        /* \"#utility.yul\":6598:6610   */\n      and\n        /* \"#utility.yul\":6629:6647   */\n      dup1\n        /* \"#utility.yul\":6619:6700   */\n      tag_163\n      jumpi\n        /* \"#utility.yul\":6685:6689   */\n      0x7f\n        /* \"#utility.yul\":6677:6683   */\n      dup3\n        /* \"#utility.yul\":6673:6690   */\n      and\n        /* \"#utility.yul\":6663:6690   */\n      swap2\n      pop\n        /* \"#utility.yul\":6619:6700   */\n    tag_163:\n        /* \"#utility.yul\":6747:6749   */\n      0x20\n        /* \"#utility.yul\":6739:6745   */\n      dup3\n        /* \"#utility.yul\":6736:6750   */\n      lt\n        /* \"#utility.yul\":6716:6734   */\n      dup2\n        /* \"#utility.yul\":6713:6751   */\n      sub\n        /* \"#utility.yul\":6710:6794   */\n      tag_164\n      jumpi\n        /* \"#utility.yul\":6766:6784   */\n      tag_165\n      tag_73\n      jump\t// in\n    tag_165:\n        /* \"#utility.yul\":6710:6794   */\n    tag_164:\n        /* \"#utility.yul\":6531:6800   */\n      pop\n        /* \"#utility.yul\":6480:6800   */\n      swap2\n      swap1\n      pop\n      jump\t// out\n        /* \"#utility.yul\":6806:6947   */\n    tag_74:\n        /* \"#utility.yul\":6855:6859   */\n      0x00\n        /* \"#utility.yul\":6878:6881   */\n      dup2\n        /* \"#utility.yul\":6870:6881   */\n      swap1\n      pop\n        /* \"#utility.yul\":6901:6904   */\n      dup2\n        /* \"#utility.yul\":6898:6899   */\n      0x00\n        /* \"#utility.yul\":6891:6905   */\n      mstore\n        /* \"#utility.yul\":6935:6939   */\n      0x20\n        /* \"#utility.yul\":6932:6933   */\n      0x00\n        /* \"#utility.yul\":6922:6940   */\n      keccak256\n        /* \"#utility.yul\":6914:6940   */\n      swap1\n      pop\n        /* \"#utility.yul\":6806:6947   */\n      swap2\n      swap1\n      pop\n      jump\t// out\n        /* \"#utility.yul\":6953:7046   */\n    tag_75:\n        /* \"#utility.yul\":6990:6996   */\n      0x00\n        /* \"#utility.yul\":7037:7039   */\n      0x20\n        /* \"#utility.yul\":7032:7034   */\n      0x1f\n        /* \"#utility.yul\":7025:7030   */\n      dup4\n        /* \"#utility.yul\":7021:7035   */\n      add\n        /* \"#utility.yul\":7017:7040   */\n      div\n        /* \"#utility.yul\":7007:7040   */\n      swap1\n      pop\n        /* \"#utility.yul\":6953:7046   */\n      swap2\n      swap1\n      pop\n      jump\t// out\n        /* \"#utility.yul\":7052:7159   */\n    tag_76:\n        /* \"#utility.yul\":7096:7104   */\n      0x00\n        /* \"#utility.yul\":7146:7151   */\n      dup3\n        /* \"#utility.yul\":7140:7144   */\n      dup3\n        /* \"#utility.yul\":7136:7152   */\n      shl\n        /* \"#utility.yul\":7115:7152   */\n      swap1\n      pop\n        /* \"#utility.yul\":7052:7159   */\n      swap3\n      swap2\n      pop\n      pop\n      jump\t// out\n        /* \"#utility.yul\":7165:7558   */\n    tag_77:\n        /* \"#utility.yul\":7234:7240   */\n      0x00\n        /* \"#utility.yul\":7284:7285   */\n      0x08\n        /* \"#utility.yul\":7272:7282   */\n      dup4\n        /* \"#utility.yul\":7268:7286   */\n      mul\n        /* \"#utility.yul\":7307:7404   */\n      tag_170\n        /* \"#utility.yul\":7337:7403   */\n      0xffffffffffffffffffffffffffffffffffffffffffffffffffffffffffffffff\n        /* \"#utility.yul\":7326:7335   */\n      dup3\n        /* \"#utility.yul\":7307:7404   */\n      tag_76\n      jump\t// in\n    tag_170:\n        /* \"#utility.yul\":7425:7464   */\n      tag_171\n        /* \"#utility.yul\":7455:7463   */\n      dup7\n        /* \"#utility.yul\":7444:7453   */\n      dup4\n        /* \"#utility.yul\":7425:7464   */\n      tag_76\n      jump\t// in\n    tag_171:\n        /* \"#utility.yul\":7413:7464   */\n      swap6\n      pop\n        /* \"#utility.yul\":7497:7501   */\n      dup1\n        /* \"#utility.yul\":7493:7502   */\n      not\n        /* \"#utility.yul\":7486:7491   */\n      dup5\n        /* \"#utility.yul\":7482:7503   */\n      and\n        /* \"#utility.yul\":7473:7503   */\n      swap4\n      pop\n        /* \"#utility.yul\":7546:7550   */\n      dup1\n        /* \"#utility.yul\":7536:7544   */\n      dup7\n        /* \"#utility.yul\":7532:7551   */\n      and\n        /* \"#utility.yul\":7525:7530   */\n      dup5\n        /* \"#utility.yul\":7522:7552   */\n      or\n        /* \"#utility.yul\":7512:7552   */\n      swap3\n      pop\n        /* \"#utility.yul\":7241:7558   */\n      pop\n      pop\n        /* \"#utility.yul\":7165:7558   */\n      swap4\n      swap3\n      pop\n      pop\n      pop\n      jump\t// out\n        /* \"#utility.yul\":7564:7624   */\n    tag_78:\n        /* \"#utility.yul\":7592:7595   */\n      0x00\n        /* \"#utility.yul\":7613:7618   */\n      dup2\n        /* \"#utility.yul\":7606:7618   */\n      swap1\n      pop\n        /* \"#utility.yul\":7564:7624   */\n      swap2\n      swap1\n      pop\n      jump\t// out\n        /* \"#utility.yul\":7630:7772   */\n    tag_79:\n        /* \"#utility.yul\":7680:7689   */\n      0x00\n        /* \"#utility.yul\":7713:7766   */\n      tag_174\n        /* \"#utility.yul\":7731:7765   */\n      tag_175\n        /* \"#utility.yul\":7740:7764   */\n      tag_176\n        /* \"#utility.yul\":7758:7763   */\n      dup5\n        /* \"#utility.yul\":7740:7764   */\n      tag_52\n      jump\t// in\n    tag_176:\n        /* \"#utility.yul\":7731:7765   */\n      tag_78\n      jump\t// in\n    tag_175:\n        /* \"#utility.yul\":7713:7766   */\n      tag_52\n      jump\t// in\n    tag_174:\n        /* \"#utility.yul\":7700:7766   */\n      swap1\n      pop\n        /* \"#utility.yul\":7630:7772   */\n      swap2\n      swap1\n      pop\n      jump\t// out\n        /* \"#utility.yul\":7778:7853   */\n    tag_80:\n        /* \"#utility.yul\":7821:7824   */\n      0x00\n        /* \"#utility.yul\":7842:7847   */\n      dup2\n        /* \"#utility.yul\":7835:7847   */\n      swap1\n      pop\n        /* \"#utility.yul\":7778:7853   */\n      swap2\n      swap1\n      pop\n      jump\t// out\n        /* \"#utility.yul\":7859:8128   */\n    tag_81:\n        /* \"#utility.yul\":7969:8008   */\n      tag_179\n        /* \"#utility.yul\":8000:8007   */\n      dup4\n        /* \"#utility.yul\":7969:8008   */\n      tag_79\n      jump\t// in\n    tag_179:\n        /* \"#utility.yul\":8030:8121   */\n      tag_180\n        /* \"#utility.yul\":8079:8120   */\n      tag_181\n        /* \"#utility.yul\":8103:8119   */\n      dup3\n        /* \"#utility.yul\":8079:8120   */\n      tag_80\n      jump\t// in\n    tag_181:\n        /* \"#utility.yul\":8071:8077   */\n      dup5\n        /* \"#utility.yul\":8064:8068   */\n      dup5\n        /* \"#utility.yul\":8058:8069   */\n      sload\n        /* \"#utility.yul\":8030:8121   */\n      tag_77\n      jump\t// in\n    tag_180:\n        /* \"#utility.yul\":8024:8028   */\n      dup3\n        /* \"#utility.yul\":8017:8122   */\n      sstore\n        /* \"#utility.yul\":7935:8128   */\n      pop\n        /* \"#utility.yul\":7859:8128   */\n      pop\n      pop\n      pop\n      jump\t// out\n        /* \"#utility.yul\":8134:8207   */\n    tag_82:\n        /* \"#utility.yul\":8179:8182   */\n      0x00\n        /* \"#utility.yul\":8200:8201   */\n      0x00\n        /* \"#utility.yul\":8193:8201   */\n      swap1\n      pop\n        /* \"#utility.yul\":8134:8207   */\n      swap1\n      jump\t// out\n        /* \"#utility.yul\":8213:8402   */\n    tag_83:\n        /* \"#utility.yul\":8290:8322   */\n      tag_184\n      tag_82\n      jump\t// in\n    tag_184:\n        /* \"#utility.yul\":8331:8396   */\n      tag_185\n        /* \"#utility.yul\":8389:8395   */\n      dup2\n        /* \"#utility.yul\":8381:8387   */\n      dup5\n        /* \"#utility.yul\":8375:8379   */\n      dup5\n        /* \"#utility.yul\":8331:8396   */\n      tag_81\n      jump\t// in\n    tag_185:\n        /* \"#utility.yul\":8266:8402   */\n      pop\n        /* \"#utility.yul\":8213:8402   */\n      pop\n      pop\n      jump\t// out\n        /* \"#utility.yul\":8408:8594   */\n    tag_84:\n        /* \"#utility.yul\":8468:8588   */\n    tag_187:\n        /* \"#utility.yul\":8485:8488   */\n      dup2\n        /* \"#utility.yul\":8478:8483   */\n      dup2\n        /* \"#utility.yul\":8475:8489   */\n      lt\n        /* \"#utility.yul\":8468:8588   */\n      iszero\n      tag_189\n      jumpi\n        /* \"#utility.yul\":8539:8578   */\n      tag_190\n        /* \"#utility.yul\":8576:8577   */\n      0x00\n        /* \"#utility.yul\":8569:8574   */\n      dup3\n        /* \"#utility.yul\":8539:8578   */\n      tag_83\n      jump\t// in\n    tag_190:\n        /* \"#utility.yul\":8512:8513   */\n      0x01\n        /* \"#utility.yul\":8505:8510   */\n      dup2\n        /* \"#utility.yul\":8501:8514   */\n      add\n        /* \"#utility.yul\":8492:8514   */\n      swap1\n      pop\n        /* \"#utility.yul\":8468:8588   */\n      jump(tag_187)\n    tag_189:\n        /* \"#utility.yul\":8408:8594   */\n      pop\n      pop\n      jump\t// out\n        /* \"#utility.yul\":8600:9143   */\n    tag_85:\n        /* \"#utility.yul\":8701:8703   */\n      0x1f\n        /* \"#utility.yul\":8696:8699   */\n      dup3\n        /* \"#utility.yul\":8693:8704   */\n      gt\n        /* \"#utility.yul\":8690:9136   */\n      iszero\n      tag_192\n      jumpi\n        /* \"#utility.yul\":8735:8773   */\n      tag_193\n        /* \"#utility.yul\":8767:8772   */\n      dup2\n        /* \"#utility.yul\":8735:8773   */\n      tag_74\n      jump\t// in\n    tag_193:\n        /* \"#utility.yul\":8819:8848   */\n      tag_194\n        /* \"#utility.yul\":8837:8847   */\n      dup5\n        /* \"#utility.yul\":8819:8848   */\n      tag_75\n      jump\t// in\n    tag_194:\n        /* \"#utility.yul\":8809:8817   */\n      dup2\n        /* \"#utility.yul\":8805:8849   */\n      add\n        /* \"#utility.yul\":9002:9004   */\n      0x20\n        /* \"#utility.yul\":8990:9000   */\n      dup6\n        /* \"#utility.yul\":8987:9005   */\n      lt\n        /* \"#utility.yul\":8984:9033   */\n      iszero\n      tag_195\n      jumpi\n        /* \"#utility.yul\":9023:9031   */\n      dup2\n        /* \"#utility.yul\":9008:9031   */\n      swap1\n      pop\n        /* \"#utility.yul\":8984:9033   */\n    tag_195:\n        /* \"#utility.yul\":9046:9126   */\n      tag_196\n        /* \"#utility.yul\":9102:9124   */\n      tag_197\n        /* \"#utility.yul\":9120:9123   */\n      dup6\n        /* \"#utility.yul\":9102:9124   */\n      tag_75\n      jump\t// in\n    tag_197:\n        /* \"#utility.yul\":9092:9100   */\n      dup4\n        /* \"#utility.yul\":9088:9125   */\n      add\n        /* \"#utility.yul\":9075:9086   */\n      dup3\n        /* \"#utility.yul\":9046:9126   */\n      tag_84\n      jump\t// in\n    tag_196:\n        /* \"#utility.yul\":8705:9136   */\n      pop\n      pop\n        /* \"#utility.yul\":8690:9136   */\n    tag_192:\n        /* \"#utility.yul\":8600:9143   */\n      pop\n      pop\n      pop\n      jump\t// out\n        /* \"#utility.yul\":9149:9266   */\n    tag_86:\n        /* \"#utility.yul\":9203:9211   */\n      0x00\n        /* \"#utility.yul\":9253:9258   */\n      dup3\n        /* \"#utility.yul\":9247:9251   */\n      dup3\n        /* \"#utility.yul\":9243:9259   */\n      shr\n        /* \"#utility.yul\":9222:9259   */\n      swap1\n      pop\n        /* \"#utility.yul\":9149:9266   */\n      swap3\n      swap2\n      pop\n      pop\n      jump\t// out\n        /* \"#utility.yul\":9272:9441   */\n    tag_87:\n        /* \"#utility.yul\":9316:9322   */\n      0x00\n        /* \"#utility.yul\":9349:9400   */\n      tag_200\n        /* \"#utility.yul\":9397:9398   */\n      0x00\n        /* \"#utility.yul\":9393:9399   */\n      not\n        /* \"#utility.yul\":9385:9390   */\n      dup5\n        /* \"#utility.yul\":9382:9383   */\n      0x08\n        /* \"#utility.yul\":9378:9391   */\n      mul\n        /* \"#utility.yul\":9349:9400   */\n      tag_86\n      jump\t// in\n    tag_200:\n        /* \"#utility.yul\":9345:9401   */\n      not\n        /* \"#utility.yul\":9430:9434   */\n      dup1\n        /* \"#utility.yul\":9424:9428   */\n      dup4\n        /* \"#utility.yul\":9420:9435   */\n      and\n        /* \"#utility.yul\":9410:9435   */\n      swap2\n      pop\n        /* \"#utility.yul\":9323:9441   */\n      pop\n        /* \"#utility.yul\":9272:9441   */\n      swap3\n      swap2\n      pop\n      pop\n      jump\t// out\n        /* \"#utility.yul\":9446:9741   */\n    tag_88:\n        /* \"#utility.yul\":9522:9526   */\n      0x00\n        /* \"#utility.yul\":9668:9697   */\n      tag_202\n        /* \"#utility.yul\":9693:9696   */\n      dup4\n        /* \"#utility.yul\":9687:9691   */\n      dup4\n        /* \"#utility.yul\":9668:9697   */\n      tag_87\n      jump\t// in\n    tag_202:\n        /* \"#utility.yul\":9660:9697   */\n      swap2\n      pop\n        /* \"#utility.yul\":9730:9733   */\n      dup3\n        /* \"#utility.yul\":9727:9728   */\n      0x02\n        /* \"#utility.yul\":9723:9734   */\n      mul\n        /* \"#utility.yul\":9717:9721   */\n      dup3\n        /* \"#utility.yul\":9714:9735   */\n      or\n        /* \"#utility.yul\":9706:9735   */\n      swap1\n      pop\n        /* \"#utility.yul\":9446:9741   */\n      swap3\n      swap2\n      pop\n      pop\n      jump\t// out\n        /* \"#utility.yul\":9746:11141   */\n    tag_39:\n        /* \"#utility.yul\":9863:9900   */\n      tag_204\n        /* \"#utility.yul\":9896:9899   */\n      dup3\n        /* \"#utility.yul\":9863:9900   */\n      tag_59\n      jump\t// in\n    tag_204:\n        /* \"#utility.yul\":9965:9983   */\n      0xffffffffffffffff\n        /* \"#utility.yul\":9957:9963   */\n      dup2\n        /* \"#utility.yul\":9954:9984   */\n      gt\n        /* \"#utility.yul\":9951:10007   */\n      iszero\n      tag_205\n      jumpi\n        /* \"#utility.yul\":9987:10005   */\n      tag_206\n      tag_66\n      jump\t// in\n    tag_206:\n        /* \"#utility.yul\":9951:10007   */\n    tag_205:\n        /* \"#utility.yul\":10031:10069   */\n      tag_207\n        /* \"#utility.yul\":10063:10067   */\n      dup3\n        /* \"#utility.yul\":10057:10068   */\n      sload\n        /* \"#utility.yul\":10031:10069   */\n      tag_32\n      jump\t// in\n    tag_207:\n        /* \"#utility.yul\":10116:10183   */\n      tag_208\n        /* \"#utility.yul\":10176:10182   */\n      dup3\n        /* \"#utility.yul\":10168:10174   */\n      dup3\n        /* \"#utility.yul\":10162:10166   */\n      dup6\n        /* \"#utility.yul\":10116:10183   */\n      tag_85\n      jump\t// in\n    tag_208:\n        /* \"#utility.yul\":10210:10211   */\n      0x00\n        /* \"#utility.yul\":10234:10238   */\n      0x20\n        /* \"#utility.yul\":10221:10238   */\n      swap1\n      pop\n        /* \"#utility.yul\":10266:10268   */\n      0x1f\n        /* \"#utility.yul\":10258:10264   */\n      dup4\n        /* \"#utility.yul\":10255:10269   */\n      gt\n        /* \"#utility.yul\":10283:10284   */\n      0x01\n        /* \"#utility.yul\":10278:10896   */\n      dup2\n      eq\n      tag_210\n      jumpi\n        /* \"#utility.yul\":10940:10941   */\n      0x00\n        /* \"#utility.yul\":10957:10963   */\n      dup5\n        /* \"#utility.yul\":10954:11031   */\n      iszero\n      tag_211\n      jumpi\n        /* \"#utility.yul\":11006:11015   */\n      dup3\n        /* \"#utility.yul\":11001:11004   */\n      dup8\n        /* \"#utility.yul\":10997:11016   */\n      add\n        /* \"#utility.yul\":10991:11017   */\n      mload\n        /* \"#utility.yul\":10982:11017   */\n      swap1\n      pop\n        /* \"#utility.yul\":10954:11031   */\n    tag_211:\n        /* \"#utility.yul\":11057:11124   */\n      tag_212\n        /* \"#utility.yul\":11117:11123   */\n      dup6\n        /* \"#utility.yul\":11110:11115   */\n      dup3\n        /* \"#utility.yul\":11057:11124   */\n      tag_88\n      jump\t// in\n    tag_212:\n        /* \"#utility.yul\":11051:11055   */\n      dup7\n        /* \"#utility.yul\":11044:11125   */\n      sstore\n        /* \"#utility.yul\":10913:11135   */\n      pop\n        /* \"#utility.yul\":10248:11135   */\n      jump(tag_209)\n        /* \"#utility.yul\":10278:10896   */\n    tag_210:\n        /* \"#utility.yul\":10330:10334   */\n      0x1f\n        /* \"#utility.yul\":10326:10335   */\n      not\n        /* \"#utility.yul\":10318:10324   */\n      dup5\n        /* \"#utility.yul\":10314:10336   */\n      and\n        /* \"#utility.yul\":10364:10401   */\n      tag_213\n        /* \"#utility.yul\":10396:10400   */\n      dup7\n        /* \"#utility.yul\":10364:10401   */\n      tag_74\n      jump\t// in\n    tag_213:\n        /* \"#utility.yul\":10423:10424   */\n      0x00\n        /* \"#utility.yul\":10437:10645   */\n    tag_214:\n        /* \"#utility.yul\":10451:10458   */\n      dup3\n        /* \"#utility.yul\":10448:10449   */\n      dup2\n        /* \"#utility.yul\":10445:10459   */\n      lt\n        /* \"#utility.yul\":10437:10645   */\n      iszero\n      tag_216\n      jumpi\n        /* \"#utility.yul\":10530:10539   */\n      dup5\n        /* \"#utility.yul\":10525:10528   */\n      dup10\n        /* \"#utility.yul\":10521:10540   */\n      add\n        /* \"#utility.yul\":10515:10541   */\n      mload\n        /* \"#utility.yul\":10507:10513   */\n      dup3\n        /* \"#utility.yul\":10500:10542   */\n      sstore\n        /* \"#utility.yul\":10581:10582   */\n      0x01\n        /* \"#utility.yul\":10573:10579   */\n      dup3\n        /* \"#utility.yul\":10569:10583   */\n      add\n        /* \"#utility.yul\":10559:10583   */\n      swap2\n      pop\n        /* \"#utility.yul\":10628:10630   */\n      0x20\n        /* \"#utility.yul\":10617:10626   */\n      dup6\n        /* \"#utility.yul\":10613:10631   */\n      add\n        /* \"#utility.yul\":10600:10631   */\n      swap5\n      pop\n        /* \"#utility.yul\":10474:10478   */\n      0x20\n        /* \"#utility.yul\":10471:10472   */\n      dup2\n        /* \"#utility.yul\":10467:10479   */\n      add\n        /* \"#utility.yul\":10462:10479   */\n      swap1\n      pop\n        /* \"#utility.yul\":10437:10645   */\n      jump(tag_214)\n    tag_216:\n        /* \"#utility.yul\":10673:10679   */\n      dup7\n        /* \"#utility.yul\":10664:10671   */\n      dup4\n        /* \"#utility.yul\":10661:10680   */\n      lt\n        /* \"#utility.yul\":10658:10837   */\n      iszero\n      tag_217\n      jumpi\n        /* \"#utility.yul\":10731:10740   */\n      dup5\n        /* \"#utility.yul\":10726:10729   */\n      dup10\n        /* \"#utility.yul\":10722:10741   */\n      add\n        /* \"#utility.yul\":10716:10742   */\n      mload\n        /* \"#utility.yul\":10774:10822   */\n      tag_218\n        /* \"#utility.yul\":10816:10820   */\n      0x1f\n        /* \"#utility.yul\":10808:10814   */\n      dup10\n        /* \"#utility.yul\":10804:10821   */\n      and\n        /* \"#utility.yul\":10793:10802   */\n      dup3\n        /* \"#utility.yul\":10774:10822   */\n      tag_87\n      jump\t// in\n    tag_218:\n        /* \"#utility.yul\":10766:10772   */\n      dup4\n        /* \"#utility.yul\":10759:10823   */\n      sstore\n        /* \"#utility.yul\":10681:10837   */\n      pop\n        /* \"#utility.yul\":10658:10837   */\n    tag_217:\n        /* \"#utility.yul\":10883:10884   */\n      0x01\n        /* \"#utility.yul\":10879:10880   */\n      0x02\n        /* \"#utility.yul\":10871:10877   */\n      dup9\n        /* \"#utility.yul\":10867:10881   */\n      mul\n        /* \"#utility.yul\":10863:10885   */\n      add\n        /* \"#utility.yul\":10857:10861   */\n      dup9\n        /* \"#utility.yul\":10850:10886   */\n      sstore\n        /* \"#utility.yul\":10285:10896   */\n      pop\n      pop\n      pop\n        /* \"#utility.yul\":10248:11135   */\n    tag_209:\n      pop\n        /* \"#utility.yul\":9838:11141   */\n      pop\n      pop\n      pop\n        /* \"#utility.yul\":9746:11141   */\n      pop\n      pop\n      jump\t// out\n        /* \"#utility.yul\":11147:11327   */\n    tag_89:\n        /* \"#utility.yul\":11195:11272   */\n      0x4e487b7100000000000000000000000000000000000000000000000000000000\n        /* \"#utility.yul\":11192:11193   */\n      0x00\n        /* \"#utility.yul\":11185:11273   */\n      mstore\n        /* \"#utility.yul\":11292:11296   */\n      0x11\n        /* \"#utility.yul\":11289:11290   */\n      0x04\n        /* \"#utility.yul\":11282:11297   */\n      mstore\n        /* \"#utility.yul\":11316:11320   */\n      0x24\n        /* \"#utility.yul\":11313:11314   */\n      0x00\n        /* \"#utility.yul\":11306:11321   */\n      revert\n        /* \"#utility.yul\":11333:11566   */\n    tag_41:\n        /* \"#utility.yul\":11372:11375   */\n      0x00\n        /* \"#utility.yul\":11395:11419   */\n      tag_221\n        /* \"#utility.yul\":11413:11418   */\n      dup3\n        /* \"#utility.yul\":11395:11419   */\n      tag_52\n      jump\t// in\n    tag_221:\n        /* \"#utility.yul\":11386:11419   */\n      swap2\n      pop\n        /* \"#utility.yul\":11441:11507   */\n      0xffffffffffffffffffffffffffffffffffffffffffffffffffffffffffffffff\n        /* \"#utility.yul\":11434:11439   */\n      dup3\n        /* \"#utility.yul\":11431:11508   */\n      sub\n        /* \"#utility.yul\":11428:11531   */\n      tag_222\n      jumpi\n        /* \"#utility.yul\":11511:11529   */\n      tag_223\n      tag_89\n      jump\t// in\n    tag_223:\n        /* \"#utility.yul\":11428:11531   */\n    tag_222:\n        /* \"#utility.yul\":11558:11559   */\n      0x01\n        /* \"#utility.yul\":11551:11556   */\n      dup3\n        /* \"#utility.yul\":11547:11560   */\n      add\n        /* \"#utility.yul\":11540:11560   */\n      swap1\n      pop\n        /* \"#utility.yul\":11333:11566   */\n      swap2\n      swap1\n      pop\n      jump\t// out\n        /* \"#utility.yul\":11572:11740   */\n    tag_90:\n        /* \"#utility.yul\":11712:11732   */\n      0x53747564656e74206e6520706f73746f6a690000000000000000000000000000\n        /* \"#utility.yul\":11708:11709   */\n      0x00\n        /* \"#utility.yul\":11700:11706   */\n      dup3\n        /* \"#utility.yul\":11696:11710   */\n      add\n        /* \"#utility.yul\":11689:11733   */\n      mstore\n        /* \"#utility.yul\":11572:11740   */\n      pop\n      jump\t// out\n        /* \"#utility.yul\":11746:12112   */\n    tag_91:\n        /* \"#utility.yul\":11888:11891   */\n      0x00\n        /* \"#utility.yul\":11909:11976   */\n      tag_226\n        /* \"#utility.yul\":11973:11975   */\n      0x12\n        /* \"#utility.yul\":11968:11971   */\n      dup4\n        /* \"#utility.yul\":11909:11976   */\n      tag_60\n      jump\t// in\n    tag_226:\n        /* \"#utility.yul\":11902:11976   */\n      swap2\n      pop\n        /* \"#utility.yul\":11985:12078   */\n      tag_227\n        /* \"#utility.yul\":12074:12077   */\n      dup3\n        /* \"#utility.yul\":11985:12078   */\n      tag_90\n      jump\t// in\n    tag_227:\n        /* \"#utility.yul\":12103:12105   */\n      0x20\n        /* \"#utility.yul\":12098:12101   */\n      dup3\n        /* \"#utility.yul\":12094:12106   */\n      add\n        /* \"#utility.yul\":12087:12106   */\n      swap1\n      pop\n        /* \"#utility.yul\":11746:12112   */\n      swap2\n      swap1\n      pop\n      jump\t// out\n        /* \"#utility.yul\":12118:12537   */\n    tag_45:\n        /* \"#utility.yul\":12284:12288   */\n      0x00\n        /* \"#utility.yul\":12322:12324   */\n      0x20\n        /* \"#utility.yul\":12311:12320   */\n      dup3\n        /* \"#utility.yul\":12307:12325   */\n      add\n        /* \"#utility.yul\":12299:12325   */\n      swap1\n      pop\n        /* \"#utility.yul\":12371:12380   */\n      dup2\n        /* \"#utility.yul\":12365:12369   */\n      dup2\n        /* \"#utility.yul\":12361:12381   */\n      sub\n        /* \"#utility.yul\":12357:12358   */\n      0x00\n        /* \"#utility.yul\":12346:12355   */\n      dup4\n        /* \"#utility.yul\":12342:12359   */\n      add\n        /* \"#utility.yul\":12335:12382   */\n      mstore\n        /* \"#utility.yul\":12399:12530   */\n      tag_229\n        /* \"#utility.yul\":12525:12529   */\n      dup2\n        /* \"#utility.yul\":12399:12530   */\n      tag_91\n      jump\t// in\n    tag_229:\n        /* \"#utility.yul\":12391:12530   */\n      swap1\n      pop\n        /* \"#utility.yul\":12118:12537   */\n      swap2\n      swap1\n      pop\n      jump\t// out\n\n    auxdata: 0xa2646970667358221220dcad50cd026b449ebd2e0b769fb29e9fe547d93e10e3c3c521a162d138dda00464736f6c634300081e0033\n}\n",
				"bytecode": {
					"linkReferences": {},
					"object": "6080604052348015600e575f5ffd5b50610a3a8061001c5f395ff3fe608060405234801561000f575f5ffd5b5060043610610055575f3560e01c806306661abd1461005957806306ead22e146100775780630e5eeef7146100a857806350bf95ce146100c4578063642f9163146100e0575b5f5ffd5b610061610110565b60405161006e919061035b565b60405180910390f35b610091600480360381019061008c91906103af565b610116565b60405161009f92919061044a565b60405180910390f35b6100c260048036038101906100bd91906105a4565b6101bb565b005b6100de60048036038101906100d991906105fe565b61021e565b005b6100fa60048036038101906100f591906103af565b61027e565b604051610107919061063c565b60405180910390f35b60015481565b5f602052805f5260405f205f91509050805f01805461013490610689565b80601f016020809104026020016040519081016040528092919081815260200182805461016090610689565b80156101ab5780601f10610182576101008083540402835291602001916101ab565b820191905f5260205f20905b81548152906001019060200180831161018e57829003601f168201915b5050505050908060010154905082565b6040518060400160405280838152602001828152505f5f60015481526020019081526020015f205f820151815f0190816101f59190610859565b506020820151816001015590505060015f81548092919061021590610955565b91905055505050565b6001548210610262576040517f08c379a0000000000000000000000000000000000000000000000000000000008152600401610259906109e6565b60405180910390fd5b805f5f8481526020019081526020015f20600101819055505050565b60605f5f5f8481526020019081526020015f206040518060400160405290815f820180546102ab90610689565b80601f01602080910402602001604051908101604052809291908181526020018280546102d790610689565b80156103225780601f106102f957610100808354040283529160200191610322565b820191905f5260205f20905b81548152906001019060200180831161030557829003601f168201915b505050505081526020016001820154815250509050805f0151915050919050565b5f819050919050565b61035581610343565b82525050565b5f60208201905061036e5f83018461034c565b92915050565b5f604051905090565b5f5ffd5b5f5ffd5b61038e81610343565b8114610398575f5ffd5b50565b5f813590506103a981610385565b92915050565b5f602082840312156103c4576103c361037d565b5b5f6103d18482850161039b565b91505092915050565b5f81519050919050565b5f82825260208201905092915050565b8281835e5f83830152505050565b5f601f19601f8301169050919050565b5f61041c826103da565b61042681856103e4565b93506104368185602086016103f4565b61043f81610402565b840191505092915050565b5f6040820190508181035f8301526104628185610412565b9050610471602083018461034c565b9392505050565b5f5ffd5b5f5ffd5b7f4e487b71000000000000000000000000000000000000000000000000000000005f52604160045260245ffd5b6104b682610402565b810181811067ffffffffffffffff821117156104d5576104d4610480565b5b80604052505050565b5f6104e7610374565b90506104f382826104ad565b919050565b5f67ffffffffffffffff82111561051257610511610480565b5b61051b82610402565b9050602081019050919050565b828183375f83830152505050565b5f610548610543846104f8565b6104de565b9050828152602081018484840111156105645761056361047c565b5b61056f848285610528565b509392505050565b5f82601f83011261058b5761058a610478565b5b813561059b848260208601610536565b91505092915050565b5f5f604083850312156105ba576105b961037d565b5b5f83013567ffffffffffffffff8111156105d7576105d6610381565b5b6105e385828601610577565b92505060206105f48582860161039b565b9150509250929050565b5f5f604083850312156106145761061361037d565b5b5f6106218582860161039b565b92505060206106328582860161039b565b9150509250929050565b5f6020820190508181035f8301526106548184610412565b905092915050565b7f4e487b71000000000000000000000000000000000000000000000000000000005f52602260045260245ffd5b5f60028204905060018216806106a057607f821691505b6020821081036106b3576106b261065c565b5b50919050565b5f819050815f5260205f209050919050565b5f6020601f8301049050919050565b5f82821b905092915050565b5f600883026107157fffffffffffffffffffffffffffffffffffffffffffffffffffffffffffffffff826106da565b61071f86836106da565b95508019841693508086168417925050509392505050565b5f819050919050565b5f61075a61075561075084610343565b610737565b610343565b9050919050565b5f819050919050565b61077383610740565b61078761077f82610761565b8484546106e6565b825550505050565b5f5f905090565b61079e61078f565b6107a981848461076a565b505050565b5b818110156107cc576107c15f82610796565b6001810190506107af565b5050565b601f821115610811576107e2816106b9565b6107eb846106cb565b810160208510156107fa578190505b61080e610806856106cb565b8301826107ae565b50505b505050565b5f82821c905092915050565b5f6108315f1984600802610816565b1980831691505092915050565b5f6108498383610822565b9150826002028217905092915050565b610862826103da565b67ffffffffffffffff81111561087b5761087a610480565b5b6108858254610689565b6108908282856107d0565b5f60209050601f8311600181146108c1575f84156108af578287015190505b6108b9858261083e565b865550610920565b601f1984166108cf866106b9565b5f5b828110156108f6578489015182556001820191506020850194506020810190506108d1565b86831015610913578489015161090f601f891682610822565b8355505b6001600288020188555050505b505050505050565b7f4e487b71000000000000000000000000000000000000000000000000000000005f52601160045260245ffd5b5f61095f82610343565b91507fffffffffffffffffffffffffffffffffffffffffffffffffffffffffffffffff820361099157610990610928565b5b600182019050919050565b7f53747564656e74206e6520706f73746f6a6900000000000000000000000000005f82015250565b5f6109d06012836103e4565b91506109db8261099c565b602082019050919050565b5f6020820190508181035f8301526109fd816109c4565b905091905056fea2646970667358221220dcad50cd026b449ebd2e0b769fb29e9fe547d93e10e3c3c521a162d138dda00464736f6c634300081e0033",
					"opcodes": "PUSH1 0x80 PUSH1 0x40 MSTORE CALLVALUE DUP1 ISZERO PUSH1 0xE JUMPI PUSH0 PUSH0 REVERT JUMPDEST POP PUSH2 0xA3A DUP1 PUSH2 0x1C PUSH0 CODECOPY PUSH0 RETURN INVALID PUSH1 0x80 PUSH1 0x40 MSTORE CALLVALUE DUP1 ISZERO PUSH2 0xF JUMPI PUSH0 PUSH0 REVERT JUMPDEST POP PUSH1 0x4 CALLDATASIZE LT PUSH2 0x55 JUMPI PUSH0 CALLDATALOAD PUSH1 0xE0 SHR DUP1 PUSH4 0x6661ABD EQ PUSH2 0x59 JUMPI DUP1 PUSH4 0x6EAD22E EQ PUSH2 0x77 JUMPI DUP1 PUSH4 0xE5EEEF7 EQ PUSH2 0xA8 JUMPI DUP1 PUSH4 0x50BF95CE EQ PUSH2 0xC4 JUMPI DUP1 PUSH4 0x642F9163 EQ PUSH2 0xE0 JUMPI JUMPDEST PUSH0 PUSH0 REVERT JUMPDEST PUSH2 0x61 PUSH2 0x110 JUMP JUMPDEST PUSH1 0x40 MLOAD PUSH2 0x6E SWAP2 SWAP1 PUSH2 0x35B JUMP JUMPDEST PUSH1 0x40 MLOAD DUP1 SWAP2 SUB SWAP1 RETURN JUMPDEST PUSH2 0x91 PUSH1 0x4 DUP1 CALLDATASIZE SUB DUP2 ADD SWAP1 PUSH2 0x8C SWAP2 SWAP1 PUSH2 0x3AF JUMP JUMPDEST PUSH2 0x116 JUMP JUMPDEST PUSH1 0x40 MLOAD PUSH2 0x9F SWAP3 SWAP2 SWAP1 PUSH2 0x44A JUMP JUMPDEST PUSH1 0x40 MLOAD DUP1 SWAP2 SUB SWAP1 RETURN JUMPDEST PUSH2 0xC2 PUSH1 0x4 DUP1 CALLDATASIZE SUB DUP2 ADD SWAP1 PUSH2 0xBD SWAP2 SWAP1 PUSH2 0x5A4 JUMP JUMPDEST PUSH2 0x1BB JUMP JUMPDEST STOP JUMPDEST PUSH2 0xDE PUSH1 0x4 DUP1 CALLDATASIZE SUB DUP2 ADD SWAP1 PUSH2 0xD9 SWAP2 SWAP1 PUSH2 0x5FE JUMP JUMPDEST PUSH2 0x21E JUMP JUMPDEST STOP JUMPDEST PUSH2 0xFA PUSH1 0x4 DUP1 CALLDATASIZE SUB DUP2 ADD SWAP1 PUSH2 0xF5 SWAP2 SWAP1 PUSH2 0x3AF JUMP JUMPDEST PUSH2 0x27E JUMP JUMPDEST PUSH1 0x40 MLOAD PUSH2 0x107 SWAP2 SWAP1 PUSH2 0x63C JUMP JUMPDEST PUSH1 0x40 MLOAD DUP1 SWAP2 SUB SWAP1 RETURN JUMPDEST PUSH1 0x1 SLOAD DUP2 JUMP JUMPDEST PUSH0 PUSH1 0x20 MSTORE DUP1 PUSH0 MSTORE PUSH1 0x40 PUSH0 KECCAK256 PUSH0 SWAP2 POP SWAP1 POP DUP1 PUSH0 ADD DUP1 SLOAD PUSH2 0x134 SWAP1 PUSH2 0x689 JUMP JUMPDEST DUP1 PUSH1 0x1F ADD PUSH1 0x20 DUP1 SWAP2 DIV MUL PUSH1 0x20 ADD PUSH1 0x40 MLOAD SWAP1 DUP2 ADD PUSH1 0x40 MSTORE DUP1 SWAP3 SWAP2 SWAP1 DUP2 DUP2 MSTORE PUSH1 0x20 ADD DUP3 DUP1 SLOAD PUSH2 0x160 SWAP1 PUSH2 0x689 JUMP JUMPDEST DUP1 ISZERO PUSH2 0x1AB JUMPI DUP1 PUSH1 0x1F LT PUSH2 0x182 JUMPI PUSH2 0x100 DUP1 DUP4 SLOAD DIV MUL DUP4 MSTORE SWAP2 PUSH1 0x20 ADD SWAP2 PUSH2 0x1AB JUMP JUMPDEST DUP3 ADD SWAP2 SWAP1 PUSH0 MSTORE PUSH1 0x20 PUSH0 KECCAK256 SWAP1 JUMPDEST DUP2 SLOAD DUP2 MSTORE SWAP1 PUSH1 0x1 ADD SWAP1 PUSH1 0x20 ADD DUP1 DUP4 GT PUSH2 0x18E JUMPI DUP3 SWAP1 SUB PUSH1 0x1F AND DUP3 ADD SWAP2 JUMPDEST POP POP POP POP POP SWAP1 DUP1 PUSH1 0x1 ADD SLOAD SWAP1 POP DUP3 JUMP JUMPDEST PUSH1 0x40 MLOAD DUP1 PUSH1 0x40 ADD PUSH1 0x40 MSTORE DUP1 DUP4 DUP2 MSTORE PUSH1 0x20 ADD DUP3 DUP2 MSTORE POP PUSH0 PUSH0 PUSH1 0x1 SLOAD DUP2 MSTORE PUSH1 0x20 ADD SWAP1 DUP2 MSTORE PUSH1 0x20 ADD PUSH0 KECCAK256 PUSH0 DUP3 ADD MLOAD DUP2 PUSH0 ADD SWAP1 DUP2 PUSH2 0x1F5 SWAP2 SWAP1 PUSH2 0x859 JUMP JUMPDEST POP PUSH1 0x20 DUP3 ADD MLOAD DUP2 PUSH1 0x1 ADD SSTORE SWAP1 POP POP PUSH1 0x1 PUSH0 DUP2 SLOAD DUP1 SWAP3 SWAP2 SWAP1 PUSH2 0x215 SWAP1 PUSH2 0x955 JUMP JUMPDEST SWAP2 SWAP1 POP SSTORE POP POP POP JUMP JUMPDEST PUSH1 0x1 SLOAD DUP3 LT PUSH2 0x262 JUMPI PUSH1 0x40 MLOAD PUSH32 0x8C379A000000000000000000000000000000000000000000000000000000000 DUP2 MSTORE PUSH1 0x4 ADD PUSH2 0x259 SWAP1 PUSH2 0x9E6 JUMP JUMPDEST PUSH1 0x40 MLOAD DUP1 SWAP2 SUB SWAP1 REVERT JUMPDEST DUP1 PUSH0 PUSH0 DUP5 DUP2 MSTORE PUSH1 0x20 ADD SWAP1 DUP2 MSTORE PUSH1 0x20 ADD PUSH0 KECCAK256 PUSH1 0x1 ADD DUP2 SWAP1 SSTORE POP POP POP JUMP JUMPDEST PUSH1 0x60 PUSH0 PUSH0 PUSH0 DUP5 DUP2 MSTORE PUSH1 0x20 ADD SWAP1 DUP2 MSTORE PUSH1 0x20 ADD PUSH0 KECCAK256 PUSH1 0x40 MLOAD DUP1 PUSH1 0x40 ADD PUSH1 0x40 MSTORE SWAP1 DUP2 PUSH0 DUP3 ADD DUP1 SLOAD PUSH2 0x2AB SWAP1 PUSH2 0x689 JUMP JUMPDEST DUP1 PUSH1 0x1F ADD PUSH1 0x20 DUP1 SWAP2 DIV MUL PUSH1 0x20 ADD PUSH1 0x40 MLOAD SWAP1 DUP2 ADD PUSH1 0x40 MSTORE DUP1 SWAP3 SWAP2 SWAP1 DUP2 DUP2 MSTORE PUSH1 0x20 ADD DUP3 DUP1 SLOAD PUSH2 0x2D7 SWAP1 PUSH2 0x689 JUMP JUMPDEST DUP1 ISZERO PUSH2 0x322 JUMPI DUP1 PUSH1 0x1F LT PUSH2 0x2F9 JUMPI PUSH2 0x100 DUP1 DUP4 SLOAD DIV MUL DUP4 MSTORE SWAP2 PUSH1 0x20 ADD SWAP2 PUSH2 0x322 JUMP JUMPDEST DUP3 ADD SWAP2 SWAP1 PUSH0 MSTORE PUSH1 0x20 PUSH0 KECCAK256 SWAP1 JUMPDEST DUP2 SLOAD DUP2 MSTORE SWAP1 PUSH1 0x1 ADD SWAP1 PUSH1 0x20 ADD DUP1 DUP4 GT PUSH2 0x305 JUMPI DUP3 SWAP1 SUB PUSH1 0x1F AND DUP3 ADD SWAP2 JUMPDEST POP POP POP POP POP DUP2 MSTORE PUSH1 0x20 ADD PUSH1 0x1 DUP3 ADD SLOAD DUP2 MSTORE POP POP SWAP1 POP DUP1 PUSH0 ADD MLOAD SWAP2 POP POP SWAP2 SWAP1 POP JUMP JUMPDEST PUSH0 DUP2 SWAP1 POP SWAP2 SWAP1 POP JUMP JUMPDEST PUSH2 0x355 DUP2 PUSH2 0x343 JUMP JUMPDEST DUP3 MSTORE POP POP JUMP JUMPDEST PUSH0 PUSH1 0x20 DUP3 ADD SWAP1 POP PUSH2 0x36E PUSH0 DUP4 ADD DUP5 PUSH2 0x34C JUMP JUMPDEST SWAP3 SWAP2 POP POP JUMP JUMPDEST PUSH0 PUSH1 0x40 MLOAD SWAP1 POP SWAP1 JUMP JUMPDEST PUSH0 PUSH0 REVERT JUMPDEST PUSH0 PUSH0 REVERT JUMPDEST PUSH2 0x38E DUP2 PUSH2 0x343 JUMP JUMPDEST DUP2 EQ PUSH2 0x398 JUMPI PUSH0 PUSH0 REVERT JUMPDEST POP JUMP JUMPDEST PUSH0 DUP2 CALLDATALOAD SWAP1 POP PUSH2 0x3A9 DUP2 PUSH2 0x385 JUMP JUMPDEST SWAP3 SWAP2 POP POP JUMP JUMPDEST PUSH0 PUSH1 0x20 DUP3 DUP5 SUB SLT ISZERO PUSH2 0x3C4 JUMPI PUSH2 0x3C3 PUSH2 0x37D JUMP JUMPDEST JUMPDEST PUSH0 PUSH2 0x3D1 DUP5 DUP3 DUP6 ADD PUSH2 0x39B JUMP JUMPDEST SWAP2 POP POP SWAP3 SWAP2 POP POP JUMP JUMPDEST PUSH0 DUP2 MLOAD SWAP1 POP SWAP2 SWAP1 POP JUMP JUMPDEST PUSH0 DUP3 DUP3 MSTORE PUSH1 0x20 DUP3 ADD SWAP1 POP SWAP3 SWAP2 POP POP JUMP JUMPDEST DUP3 DUP2 DUP4 MCOPY PUSH0 DUP4 DUP4 ADD MSTORE POP POP POP JUMP JUMPDEST PUSH0 PUSH1 0x1F NOT PUSH1 0x1F DUP4 ADD AND SWAP1 POP SWAP2 SWAP1 POP JUMP JUMPDEST PUSH0 PUSH2 0x41C DUP3 PUSH2 0x3DA JUMP JUMPDEST PUSH2 0x426 DUP2 DUP6 PUSH2 0x3E4 JUMP JUMPDEST SWAP4 POP PUSH2 0x436 DUP2 DUP6 PUSH1 0x20 DUP7 ADD PUSH2 0x3F4 JUMP JUMPDEST PUSH2 0x43F DUP2 PUSH2 0x402 JUMP JUMPDEST DUP5 ADD SWAP2 POP POP SWAP3 SWAP2 POP POP JUMP JUMPDEST PUSH0 PUSH1 0x40 DUP3 ADD SWAP1 POP DUP2 DUP2 SUB PUSH0 DUP4 ADD MSTORE PUSH2 0x462 DUP2 DUP6 PUSH2 0x412 JUMP JUMPDEST SWAP1 POP PUSH2 0x471 PUSH1 0x20 DUP4 ADD DUP5 PUSH2 0x34C JUMP JUMPDEST SWAP4 SWAP3 POP POP POP JUMP JUMPDEST PUSH0 PUSH0 REVERT JUMPDEST PUSH0 PUSH0 REVERT JUMPDEST PUSH32 0x4E487B7100000000000000000000000000000000000000000000000000000000 PUSH0 MSTORE PUSH1 0x41 PUSH1 0x4 MSTORE PUSH1 0x24 PUSH0 REVERT JUMPDEST PUSH2 0x4B6 DUP3 PUSH2 0x402 JUMP JUMPDEST DUP2 ADD DUP2 DUP2 LT PUSH8 0xFFFFFFFFFFFFFFFF DUP3 GT OR ISZERO PUSH2 0x4D5 JUMPI PUSH2 0x4D4 PUSH2 0x480 JUMP JUMPDEST JUMPDEST DUP1 PUSH1 0x40 MSTORE POP POP POP JUMP JUMPDEST PUSH0 PUSH2 0x4E7 PUSH2 0x374 JUMP JUMPDEST SWAP1 POP PUSH2 0x4F3 DUP3 DUP3 PUSH2 0x4AD JUMP JUMPDEST SWAP2 SWAP1 POP JUMP JUMPDEST PUSH0 PUSH8 0xFFFFFFFFFFFFFFFF DUP3 GT ISZERO PUSH2 0x512 JUMPI PUSH2 0x511 PUSH2 0x480 JUMP JUMPDEST JUMPDEST PUSH2 0x51B DUP3 PUSH2 0x402 JUMP JUMPDEST SWAP1 POP PUSH1 0x20 DUP2 ADD SWAP1 POP SWAP2 SWAP1 POP JUMP JUMPDEST DUP3 DUP2 DUP4 CALLDATACOPY PUSH0 DUP4 DUP4 ADD MSTORE POP POP POP JUMP JUMPDEST PUSH0 PUSH2 0x548 PUSH2 0x543 DUP5 PUSH2 0x4F8 JUMP JUMPDEST PUSH2 0x4DE JUMP JUMPDEST SWAP1 POP DUP3 DUP2 MSTORE PUSH1 0x20 DUP2 ADD DUP5 DUP5 DUP5 ADD GT ISZERO PUSH2 0x564 JUMPI PUSH2 0x563 PUSH2 0x47C JUMP JUMPDEST JUMPDEST PUSH2 0x56F DUP5 DUP3 DUP6 PUSH2 0x528 JUMP JUMPDEST POP SWAP4 SWAP3 POP POP POP JUMP JUMPDEST PUSH0 DUP3 PUSH1 0x1F DUP4 ADD SLT PUSH2 0x58B JUMPI PUSH2 0x58A PUSH2 0x478 JUMP JUMPDEST JUMPDEST DUP2 CALLDATALOAD PUSH2 0x59B DUP5 DUP3 PUSH1 0x20 DUP7 ADD PUSH2 0x536 JUMP JUMPDEST SWAP2 POP POP SWAP3 SWAP2 POP POP JUMP JUMPDEST PUSH0 PUSH0 PUSH1 0x40 DUP4 DUP6 SUB SLT ISZERO PUSH2 0x5BA JUMPI PUSH2 0x5B9 PUSH2 0x37D JUMP JUMPDEST JUMPDEST PUSH0 DUP4 ADD CALLDATALOAD PUSH8 0xFFFFFFFFFFFFFFFF DUP2 GT ISZERO PUSH2 0x5D7 JUMPI PUSH2 0x5D6 PUSH2 0x381 JUMP JUMPDEST JUMPDEST PUSH2 0x5E3 DUP6 DUP3 DUP7 ADD PUSH2 0x577 JUMP JUMPDEST SWAP3 POP POP PUSH1 0x20 PUSH2 0x5F4 DUP6 DUP3 DUP7 ADD PUSH2 0x39B JUMP JUMPDEST SWAP2 POP POP SWAP3 POP SWAP3 SWAP1 POP JUMP JUMPDEST PUSH0 PUSH0 PUSH1 0x40 DUP4 DUP6 SUB SLT ISZERO PUSH2 0x614 JUMPI PUSH2 0x613 PUSH2 0x37D JUMP JUMPDEST JUMPDEST PUSH0 PUSH2 0x621 DUP6 DUP3 DUP7 ADD PUSH2 0x39B JUMP JUMPDEST SWAP3 POP POP PUSH1 0x20 PUSH2 0x632 DUP6 DUP3 DUP7 ADD PUSH2 0x39B JUMP JUMPDEST SWAP2 POP POP SWAP3 POP SWAP3 SWAP1 POP JUMP JUMPDEST PUSH0 PUSH1 0x20 DUP3 ADD SWAP1 POP DUP2 DUP2 SUB PUSH0 DUP4 ADD MSTORE PUSH2 0x654 DUP2 DUP5 PUSH2 0x412 JUMP JUMPDEST SWAP1 POP SWAP3 SWAP2 POP POP JUMP JUMPDEST PUSH32 0x4E487B7100000000000000000000000000000000000000000000000000000000 PUSH0 MSTORE PUSH1 0x22 PUSH1 0x4 MSTORE PUSH1 0x24 PUSH0 REVERT JUMPDEST PUSH0 PUSH1 0x2 DUP3 DIV SWAP1 POP PUSH1 0x1 DUP3 AND DUP1 PUSH2 0x6A0 JUMPI PUSH1 0x7F DUP3 AND SWAP2 POP JUMPDEST PUSH1 0x20 DUP3 LT DUP2 SUB PUSH2 0x6B3 JUMPI PUSH2 0x6B2 PUSH2 0x65C JUMP JUMPDEST JUMPDEST POP SWAP2 SWAP1 POP JUMP JUMPDEST PUSH0 DUP2 SWAP1 POP DUP2 PUSH0 MSTORE PUSH1 0x20 PUSH0 KECCAK256 SWAP1 POP SWAP2 SWAP1 POP JUMP JUMPDEST PUSH0 PUSH1 0x20 PUSH1 0x1F DUP4 ADD DIV SWAP1 POP SWAP2 SWAP1 POP JUMP JUMPDEST PUSH0 DUP3 DUP3 SHL SWAP1 POP SWAP3 SWAP2 POP POP JUMP JUMPDEST PUSH0 PUSH1 0x8 DUP4 MUL PUSH2 0x715 PUSH32 0xFFFFFFFFFFFFFFFFFFFFFFFFFFFFFFFFFFFFFFFFFFFFFFFFFFFFFFFFFFFFFFFF DUP3 PUSH2 0x6DA JUMP JUMPDEST PUSH2 0x71F DUP7 DUP4 PUSH2 0x6DA JUMP JUMPDEST SWAP6 POP DUP1 NOT DUP5 AND SWAP4 POP DUP1 DUP7 AND DUP5 OR SWAP3 POP POP POP SWAP4 SWAP3 POP POP POP JUMP JUMPDEST PUSH0 DUP2 SWAP1 POP SWAP2 SWAP1 POP JUMP JUMPDEST PUSH0 PUSH2 0x75A PUSH2 0x755 PUSH2 0x750 DUP5 PUSH2 0x343 JUMP JUMPDEST PUSH2 0x737 JUMP JUMPDEST PUSH2 0x343 JUMP JUMPDEST SWAP1 POP SWAP2 SWAP1 POP JUMP JUMPDEST PUSH0 DUP2 SWAP1 POP SWAP2 SWAP1 POP JUMP JUMPDEST PUSH2 0x773 DUP4 PUSH2 0x740 JUMP JUMPDEST PUSH2 0x787 PUSH2 0x77F DUP3 PUSH2 0x761 JUMP JUMPDEST DUP5 DUP5 SLOAD PUSH2 0x6E6 JUMP JUMPDEST DUP3 SSTORE POP POP POP POP JUMP JUMPDEST PUSH0 PUSH0 SWAP1 POP SWAP1 JUMP JUMPDEST PUSH2 0x79E PUSH2 0x78F JUMP JUMPDEST PUSH2 0x7A9 DUP2 DUP5 DUP5 PUSH2 0x76A JUMP JUMPDEST POP POP POP JUMP JUMPDEST JUMPDEST DUP2 DUP2 LT ISZERO PUSH2 0x7CC JUMPI PUSH2 0x7C1 PUSH0 DUP3 PUSH2 0x796 JUMP JUMPDEST PUSH1 0x1 DUP2 ADD SWAP1 POP PUSH2 0x7AF JUMP JUMPDEST POP POP JUMP JUMPDEST PUSH1 0x1F DUP3 GT ISZERO PUSH2 0x811 JUMPI PUSH2 0x7E2 DUP2 PUSH2 0x6B9 JUMP JUMPDEST PUSH2 0x7EB DUP5 PUSH2 0x6CB JUMP JUMPDEST DUP2 ADD PUSH1 0x20 DUP6 LT ISZERO PUSH2 0x7FA JUMPI DUP2 SWAP1 POP JUMPDEST PUSH2 0x80E PUSH2 0x806 DUP6 PUSH2 0x6CB JUMP JUMPDEST DUP4 ADD DUP3 PUSH2 0x7AE JUMP JUMPDEST POP POP JUMPDEST POP POP POP JUMP JUMPDEST PUSH0 DUP3 DUP3 SHR SWAP1 POP SWAP3 SWAP2 POP POP JUMP JUMPDEST PUSH0 PUSH2 0x831 PUSH0 NOT DUP5 PUSH1 0x8 MUL PUSH2 0x816 JUMP JUMPDEST NOT DUP1 DUP4 AND SWAP2 POP POP SWAP3 SWAP2 POP POP JUMP JUMPDEST PUSH0 PUSH2 0x849 DUP4 DUP4 PUSH2 0x822 JUMP JUMPDEST SWAP2 POP DUP3 PUSH1 0x2 MUL DUP3 OR SWAP1 POP SWAP3 SWAP2 POP POP JUMP JUMPDEST PUSH2 0x862 DUP3 PUSH2 0x3DA JUMP JUMPDEST PUSH8 0xFFFFFFFFFFFFFFFF DUP2 GT ISZERO PUSH2 0x87B JUMPI PUSH2 0x87A PUSH2 0x480 JUMP JUMPDEST JUMPDEST PUSH2 0x885 DUP3 SLOAD PUSH2 0x689 JUMP JUMPDEST PUSH2 0x890 DUP3 DUP3 DUP6 PUSH2 0x7D0 JUMP JUMPDEST PUSH0 PUSH1 0x20 SWAP1 POP PUSH1 0x1F DUP4 GT PUSH1 0x1 DUP2 EQ PUSH2 0x8C1 JUMPI PUSH0 DUP5 ISZERO PUSH2 0x8AF JUMPI DUP3 DUP8 ADD MLOAD SWAP1 POP JUMPDEST PUSH2 0x8B9 DUP6 DUP3 PUSH2 0x83E JUMP JUMPDEST DUP7 SSTORE POP PUSH2 0x920 JUMP JUMPDEST PUSH1 0x1F NOT DUP5 AND PUSH2 0x8CF DUP7 PUSH2 0x6B9 JUMP JUMPDEST PUSH0 JUMPDEST DUP3 DUP2 LT ISZERO PUSH2 0x8F6 JUMPI DUP5 DUP10 ADD MLOAD DUP3 SSTORE PUSH1 0x1 DUP3 ADD SWAP2 POP PUSH1 0x20 DUP6 ADD SWAP5 POP PUSH1 0x20 DUP2 ADD SWAP1 POP PUSH2 0x8D1 JUMP JUMPDEST DUP7 DUP4 LT ISZERO PUSH2 0x913 JUMPI DUP5 DUP10 ADD MLOAD PUSH2 0x90F PUSH1 0x1F DUP10 AND DUP3 PUSH2 0x822 JUMP JUMPDEST DUP4 SSTORE POP JUMPDEST PUSH1 0x1 PUSH1 0x2 DUP9 MUL ADD DUP9 SSTORE POP POP POP JUMPDEST POP POP POP POP POP POP JUMP JUMPDEST PUSH32 0x4E487B7100000000000000000000000000000000000000000000000000000000 PUSH0 MSTORE PUSH1 0x11 PUSH1 0x4 MSTORE PUSH1 0x24 PUSH0 REVERT JUMPDEST PUSH0 PUSH2 0x95F DUP3 PUSH2 0x343 JUMP JUMPDEST SWAP2 POP PUSH32 0xFFFFFFFFFFFFFFFFFFFFFFFFFFFFFFFFFFFFFFFFFFFFFFFFFFFFFFFFFFFFFFFF DUP3 SUB PUSH2 0x991 JUMPI PUSH2 0x990 PUSH2 0x928 JUMP JUMPDEST JUMPDEST PUSH1 0x1 DUP3 ADD SWAP1 POP SWAP2 SWAP1 POP JUMP JUMPDEST PUSH32 0x53747564656E74206E6520706F73746F6A690000000000000000000000000000 PUSH0 DUP3 ADD MSTORE POP JUMP JUMPDEST PUSH0 PUSH2 0x9D0 PUSH1 0x12 DUP4 PUSH2 0x3E4 JUMP JUMPDEST SWAP2 POP PUSH2 0x9DB DUP3 PUSH2 0x99C JUMP JUMPDEST PUSH1 0x20 DUP3 ADD SWAP1 POP SWAP2 SWAP1 POP JUMP JUMPDEST PUSH0 PUSH1 0x20 DUP3 ADD SWAP1 POP DUP2 DUP2 SUB PUSH0 DUP4 ADD MSTORE PUSH2 0x9FD DUP2 PUSH2 0x9C4 JUMP JUMPDEST SWAP1 POP SWAP2 SWAP1 POP JUMP INVALID LOG2 PUSH5 0x6970667358 0x22 SLT KECCAK256 0xDC 0xAD POP 0xCD MUL PUSH12 0x449EBD2E0B769FB29E9FE547 0xD9 RETURNDATACOPY LT CALLF 0xC3C5 0x21 LOG1 PUSH3 0xD138DD LOG0 DIV PUSH5 0x736F6C6343 STOP ADDMOD 0x1E STOP CALLER "
				},
				"gasEstimates": {
					"creation": {
						"codeDepositCost": "523600",
						"executionCost": "554",
						"totalCost": "524154"
					},
					"external": {
						"addStudent(string,uint256)": "infinite",
						"count()": "2403",
						"getStudent(uint256)": "infinite",
						"students(uint256)": "infinite",
						"updateGrade(uint256,uint256)": "infinite"
					}
				},
				"methodIdentifiers": {
					"addStudent(string,uint256)": "0e5eeef7",
					"count()": "06661abd",
					"getStudent(uint256)": "642f9163",
					"students(uint256)": "06ead22e",
					"updateGrade(uint256,uint256)": "50bf95ce"
				}
			},
			"storageLayout": {
				"storage": [
					{
						"astId": 11,
						"contract": "vjezba1.sol:StudentRecord",
						"label": "students",
						"offset": 0,
						"slot": "0",
						"type": "t_mapping(t_uint256,t_struct(Student)6_storage)"
					},
					{
						"astId": 13,
						"contract": "vjezba1.sol:StudentRecord",
						"label": "count",
						"offset": 0,
						"slot": "1",
						"type": "t_uint256"
					}
				],
				"types": {
					"t_mapping(t_uint256,t_struct(Student)6_storage)": {
						"encoding": "mapping",
						"key": "t_uint256",
						"label": "mapping(uint256 => struct StudentRecord.Student)",
						"numberOfBytes": "32",
						"value": "t_struct(Student)6_storage"
					},
					"t_string_storage": {
						"encoding": "bytes",
						"label": "string",
						"numberOfBytes": "32"
					},
					"t_struct(Student)6_storage": {
						"encoding": "inplace",
						"label": "struct StudentRecord.Student",
						"members": [
							{
								"astId": 3,
								"contract": "vjezba1.sol:StudentRecord",
								"label": "name",
								"offset": 0,
								"slot": "0",
								"type": "t_string_storage"
							},
							{
								"astId": 5,
								"contract": "vjezba1.sol:StudentRecord",
								"label": "grade",
								"offset": 0,
								"slot": "1",
								"type": "t_uint256"
							}
						],
						"numberOfBytes": "64"
					},
					"t_uint256": {
						"encoding": "inplace",
						"label": "uint256",
						"numberOfBytes": "32"
					}
				}
			},
			"userdoc": {
				"kind": "user",
				"methods": {},
				"version": 1
			}
		}
	}
}